S0120000544553545F41544D454C2E7372656300
S113000071C0000030C1000051C1000072C1000085
S113001093C10000B4C10000CAC10000DCC10000EB
S1130020EEC100007FC000007DC000007BC0000066
S113003079C0000077C0000075C0000073C00000E4
S113004071C000006FC000006DC000006BC00000F4
S113005069C0000067C0000065C0000063C0000004
S113006061C00000DBC100005DC000005BC0000097
S113007059C0000057C0000055C0000053C0000024
S113008051C000004FC000004DC000004CC0000033
S113009049C0000047C0000045C0000043C0000044
S11300A041C000003FC000003DC000003BC0000054
S11300B039C0000037C0000035C0000033C0000064
S11300C031C000002FC000002DC000002BC0000074
S11300D029C0000027C0000025C0000023C0000084
S11300E021C0000011241FBECFEFD1E2DEBFCDBF7F
S11300F000E00CBF12E0A0E0B2E0E0EEF4E100E0CA
S11301000BBF02C007900D92A832B107D9F724E0C3
S1130110A8E2B2E001C01D92AD3DB207E1F7B4D14F
S11301200C946E0A6DCF1F920F920FB60F9211248A
S11301302F933F934F935F936F937F938F939F93EB
S1130140AF9320912A0230912B0240912C025091BE
S11301502D0260912E0270912F02809130029091B5
S11301603102A1E00E94030A20932A0230932B0259
S113017040932C0250932D0260932E0270932F0211
S11301808093300290933102AF919F918F917F9130
S11301906F915F914F913F912F910F900FBE0F90F0
S11301A01F901895FC01408121E030E002C0220F2D
S11301B0331F6A95E2F7242B20830895FC014081C4
S11301C021E030E002C0220F331F6A95E2F7242BAE
S11301D020830895FC01908121E030E002C0220FC9
S11301E0331F6A95E2F72095292320830895F89414
S11301F0E1E9F0E0808181608083E1E7F0E08081E3
S11302008160808378940895F89450912A024091F3
S11302102B0230912C0220912D0280912E0280918C
S11302202F028091300280913102852F942FA32FC9
S1130230B22F6091940070919500AB0160E070E082
S11302407894DC0199278827840F951FA61FB71F70
S1130250BC01CD01689413F89695879577956795B9
S11302601694D1F708951F920F920FB60F9211248E
S11302708F939F934E9B0AC080914B0290914C02A6
S1130280019690934C0280934B0209C080914B02DB
S113029090914C02019790934C0280934B029F9152
S11302A08F910F900FBE0F901F9018951F920F9271
S11302B00FB60F9211248F939F934F9B0AC0809186
S11302C04D0290914E02019690934E0280934D02FE
S11302D009C080914D0290914E02019790934E0275
S11302E080934D029F918F910F900FBE0F901F909E
S11302F018951F920F920FB60F9211248F939F930C
S11303001D9B0AC080914F029091500201969093D8
S1130310500280934F0209C080914F029091500285
S113032001979093500280934F029F918F910F9069
S11303300FBE0F901F9018951F920F920FB60F9239
S113034011248F939F931C9B0AC08091510290911A
S113035052020196909352028093510209C08091F7
S1130360510290915202019790935202809351024C
S11303709F918F910F900FBE0F901F9018951F9211
S11303800F920FB60F9211248F9381E080933C0259
S113039080913E02882329F01092000281E080932C
S11303A03D028F910F900FBE0F901F9018951F92D2
S11303B00F920FB60F9211248F9381E080933B022A
S11303C080913E02811110923D028F910F900FBED9
S11303D00F901F9018951F920F920FB60F92112431
S11303E08F9381E080933B0280913E0281111092B1
S11303F03D028F910F900FBE0F901F9018951F9282
S11304000F920FB60F9211248F9381E080933A02DA
S11304108F910F900FBE0F901F9018951F920F92FF
S11304200FB60F9211240BB60F928F939F93EF93F5
S1130430FF938091C6008A3011F08D3061F4E09111
S11304404A02F0E0E259FC4F108281E080934902B5
S113045010924A020EC090914A02933650F4E091F1
S11304604A0291E09E0F90934A02F0E0E259FC4F59
S11304708083FF91EF919F918F910F900BBE0F900E
S11304800FBE0F901F901895CF93DF93CDB7DEB7B3
S1130490C355D1090FB6F894DEBF0FBECDBFA7DE9A
S11304A044D577D563D50F2EFCE3BF2EF02DBF9234
S11304B01F928CEA8F931F9284EB8F9385E08F9326
S11304C088248394982C0F2EF6E0AF2EF02D0F2E57
S11304D0F5E0CF2EF02DEE24E394FE2C06E025E08B
S11304E042E051E062E0CE010196F9D183E5FE01DC
S11304F03196A7EBB2E001900D928A95E1F7C12CF9
S1130500D12C760106EA1BE924EC3BE340E050E001
S113051060E87FE387EB92E037D2BF921F9288EACC
S11305208F931F928AEA8F9383E08F936894AA240F
S1130530A2F80F2EF3E0CF2EF02DEE24E394FE2C40
S113054004E023E042E051E062E0CE010196C7D12D
S113055083E5FE013196A6E2B4E001900D928A95FE
S1130560E1F7C12CD12C760106EA1BE924EC3BE32C
S113057040E050E060E87FE386E294E005D284E660
S11305808F931F921F921F928AE88F9386E08F9316
S11305900F2EF4E28F2E912CF02D0F2EF3E0AF2EC0
S11305A0F02D6894CC24C1F80F2EFAE0EF2EFF242E
S11305B0F394F02D03E022E04BE051E061E0CE0142
S11305C001968DD183E5FE013196A3EDB3E0019050
S11305D00D928A95E1F7C12CD12C76010DEC1CEC1F
S11305E02CE43DE34AE959E969E97FE383ED93E0CB
S11305F0CBD11BD2E7E0F1E0808181608083E8E029
S1130600F1E080818E7F80830FB6F894DEBF0FBE49
S1130610CDBF80913F0281110DC061E072E08EE692
S113062093E01DD7892B31F481E080933F0286E06B
S113063092E0C2D480913F02882309F449C16CE05E
S113064072E08EE693E00BD7892B29F410923F02D7
S113065081E192E0B1D467E172E08EE693E0FCD6EA
S11306609093480280934702009721F0BC018AE0EE
S113067093E0FED669E172E08AE093E0F0D6892B3C
S113068031F481E080933E021092400209C06CE193
S113069072E08AE093E0E3D6892B11F410923E02D3
S11306A06FE172E08AE093E0DAD6892B31F481E0DD
S11306B08093400210923E0209C06CE172E08AE02D
S11306C093E0CDD6892B11F41092400267E172E0D9
S11306D080E090E0C1D6909348028093470200974F
S11306E0D9F09DD69C0128533F4F2139314028F43D
S11306F090934602809345020FC099233CF488E30B
S11307009FEF909346028093450206C088EC90E0E8
S1130710909346028093450267E172E080E090E0A6
S11307209BD690934802809347020097D9F077D6DE
S11307309C012C503E4F293E334028F490934402B0
S1130740809343020FC099233CF48CE09EEF909376
S113075044028093430206C084EF91E090934402E4
S11307608093430267E172E080E090E075D6909355
S1130770480280934702009729F051D69093420291
S11307808093410280913E02882309F458C06CE3AF
S113079087EB92E0C7D36CE386E294E0C3D3809105
S11307A00002882391F0409151025091520200912D
S11307B0360210913702209138023091390260EEEE
S11307C071EB87EB92E024D309C087EB92E0A4D1CC
S11307D088E39FEF909352028093510280913D02EF
S11307E0882391F040914F025091500200913202BF
S11307F010913302209134023091350260EE71EB96
S113080086E294E005D309C086E294E085D18CEABF
S11308109EEF9093500280934F02809100028111C9
S11308200EC080913D0281110AC010923E0282E204
S113083092E0C2D381E08093000210923D02809145
S113084040028823A1F1409151025091520200913B
S113085036021091370220913802309139026091AA
S113086045027091460287EB92E0D2D240914F024A
S113087050915002009132021091330220913402BF
S113088030913502609143027091440286E294E013
S1130890BFD240914D0250914E026091410270913D
S11308A0420200E010E0980183ED93E0B1D2809120
S11308B0400281110DC080913E02811109C087EB75
S11308C092E02AD186E294E027D183ED93E024D10B
S11308D08FE39CE90197F1F700C000009ACE6F9274
S11308E07F928F929F92AF92CF92DF92EF92FF927C
S11308F00F931F93CF93DF93CDB7DEB73C01162F31
S11309006C2DD9888E89F301108356834583278300
S11309100087F282E182C382A48292868186D38692
S11309202A893B89348B238B2C893D89368B258BF3
S1130930848790E0928F818F82E38587C70132DCC0
S11309406A2DC7012FDC113049F48CE090E0F301EB
S1130950908F878B6D2DC40125DC07C0123029F4DC
S113096080E398E0F301908F878BC301DF91CF91EF
S11309701F910F91FF90EF90DF90CF90AF909F90D9
S11309808F907F906F900895CF92DF92EF92FF92B5
S11309900F931F93CF93DF93EC014BAF5CAF6DAF1D
S11309A07EAFFC01FF960083118322833383349648
S11309B0C082D182E282F38218A21F8E1EA21DA2DF
S11309C06F89788D660F771F80E090E003D46BAB5E
S11309D07CAB8DAB9EAB1FA218A619A61AA61BA6AC
S11309E01CA61DA61EA61FA618AA19AA1AAAFE01AD
S11309F0E95BFF4F108211821282138234961082B7
S1130A00118212821382349610821182128213820E
S1130A101CA21BA21AA219A2DF91CF911F910F91C0
S1130A20FF90EF90DF90CF90089584B5836884BDE4
S1130A3085B5896085BDE0E8F0E0808181628083CE
S1130A40E1E8F0E0808189608083E0EBF0E0808180
S1130A5083628083E1EBF0E0808181608083E0EA5F
S1130A60F0E08081896A8083E1EAF0E08081896036
S1130A7080830895CF93DF93FC0181E0818B128AF8
S1130A808081813051F4EF0167818581968196DB05
S1130A9068858D819E819EDB13C0823089F4A38991
S1130AA0B489818D928D99231CF491958195910936
S1130AB011969C938E930588F689E02D11821082FD
S1130AC0DF91CF910895CF93DF93FC01118A81E0E8
S1130AD0828B8081813051F4EF0167818581968119
S1130AE079DB68858D819E8169DB13C0823089F44E
S1130AF0A389B48911961C921E92A589B689818D09
S1130B00928D99231CF491958195910911969C934A
S1130B108E93DF91CF910895CF93DF93FC01118AD7
S1130B20128A8081813051F4EF0167818581968139
S1130B3051DB68858D819E814DDB0CC0823051F480
S1130B40A389B48911961C921E920588F689E02D1A
S1130B5011821082DF91CF9108952F923F924F928C
S1130B605F926F927F928F929F92AF92BF92CF9239
S1130B70DF92EF92FF920F931F93CF93DF93CDB742
S1130B80DEB72A970FB6F894DEBF0FBECDBF9A87A3
S1130B9089873ADB2B013C01E985FA85E95BFF4F44
S1130BA0608371838283938329843A848FE4280E3B
S1130BB0311CF10180819181A281B38153014201F1
S1130BC0881A990AAA0ABB0AE985FA85E55BFF4FE8
S1130BD080829182A282B382A985BA8595960D916D
S1130BE01C91969791968D919C919297081B190B45
S1130BF0B801012E000C880B990BEED26B017C011D
S1130C00E985FA8567A370A781A792A7678D70A16C
S1130C10072E000C880B990BDFD29B01AC01C70196
S1130C20B601D6D169837A838B839C83C501B401D1
S1130C30D1D26D837E838F8398879B01AC016981B8
S1130C407A818B819C812DD269837A838B839C8367
S1130C50A985BA859B966D937D938D939C939E975E
S1130C609F968D909D90AD90BC90D2972D813E81A2
S1130C704F815885C701B60163D39B01AC01C501FF
S1130C80B401A7D14B015C01E985FA8567A770AB74
S1130C9081AB92AB23AD34AD45AD56ADC701B601C2
S1130CA04FD36B017C01E985FA85FF962081318160
S1130CB04281538169817A818B819C8141D39B01DB
S1130CC0AC01C701B60185D16B017C01E985FA85C8
S1130CD0ED5BFF4F2081318142815381C501B40115
S1130CE02FD39B01AC01C701B60173D16B017C0109
S1130CF0A985BA85D7966D937D938D939C93DA9746
S1130D0090961C930E935F97F10140825182628208
S1130D1073821C96BC900B2D10E0B801012E000CC0
S1130D20880B990B59D29B01AC01C701B60104D3BE
S1130D3018166CF46B2D70E080E090E04BD2A9851E
S1130D40BA85D7966D937D938D939C93DA97E985B5
S1130D50FA85C7A8D0ACE1ACF2AC66277727601B54
S1130D60710B072E000C880B990B36D24B015C01DA
S1130D709B01AC01C701B60190D1882344F4A98535
S1130D80BA85D7968D929D92AD92BC92DA972A96A7
S1130D900FB6F894DEBF0FBECDBFDF91CF911F9188
S1130DA00F91FF90EF90DF90CF90BF90AF909F9006
S1130DB08F907F906F905F904F903F902F90089509
S1130DC0CF93DF93EC016B8D7C8D8D8D9E8D20E018
S1130DD030E040EA50E4B0D218165CF489898823E4
S1130DE019F081E08F8705C08A89882311F081E09A
S1130DF0888B8A89882319F08F8581111F868989B8
S1130E00882319F088898111188ADF91CF91089578
S1130E108F929F92AF92BF92EF92FF920F931F9384
S1130E20CF93DF931F921F92CDB7DEB77C015A8315
S1130E304983DC0196967C936E939597FC01038F0E
S1130E40148F258F368F2FB7F89481E008C08981DD
S1130E509A81D70192969C938E93919780E0811109
S1130E60F6CF2FBFC70179DEF70167A970AD81AD59
S1130E7092AD7FD1D7015A967C936E935997C7014F
S1130E809FDFF701818D928D181619061CF42785B2
S1130E90211107C0992344F4D70150962C912223A1
S1130EA019F0C70139DE31C0F7012081213061F426
S1130EB00388F489E02D9C01992324F42227332705
S1130EC0281B390B31832083D701D7968D909D90B1
S1130ED0AD90BC90DA9720E030E040E252E4C501E6
S1130EE0B4012AD218161CF4C701C4DD0EC020E0D8
S1130EF030E040E252ECC501B401CFD088231CF4A9
S1130F00C701E1DD02C0C70107DE0F900F90DF913A
S1130F10CF911F910F91FF90EF90BF90AF909F9052
S1130F208F900895FC0164870895F8948AB18073C2
S1130F308AB98DB18F708DB984B18F7C84B98BB12E
S1130F4080738BB985B18F7C85B98EB1806F8EB972
S1130F50E9E6F0E080819FEF9083EAE6F0E08081AB
S1130F60856580838DB39DBB78940895EAE7F0E0AE
S1130F70808187688083ECE7F0E0808180648083EF
S1130F8080818F778083EBE7F0E08081877F8083A7
S1130F9008951092C50087E68093C40088E9809381
S1130FA0C10086E08093C20008959091C00095FF2F
S1130FB0FCCF8093C6000895CF93DF93EC0102C069
S1130FC02196F3DF88818111FBCFDF91CF910895C2
S1130FD05058BB27AA270ED075C166D130F06BD10B
S1130FE020F031F49F3F11F41EF45BC10EF4E09540
S1130FF0E7FB51C1E92F77D180F3BA176207730772
S11310008407950718F071F49EF58FC10EF4E095EE
S11310100B2EBA2FA02D0B01B90190010C01CA01AE
S1131020A0011124FF27591B99F0593F50F4503E59
S113103068F11A16F040A22F232F342F4427585F4B
S1131040F3CF469537952795A795F0405395C9F763
S11310507EF41F16BA0B620B730B840BBAF091501B
S1131060A1F0FF0FBB1F661F771F881FC2F70EC0BA
S1131070BA0F621F731F841F48F48795779567958D
S1131080B795F7959E3F08F0B3CF9395880F08F076
S11310909927EE0F979587950895D9D008F481E0A4
S11310A008950CD00FC107D140F0FED030F021F4E8
S11310B05F3F19F0F0C0511139C1F3C014D198F356
S11310C09923C9F35523B1F3951B550BBB27AA27C5
S11310D062177307840738F09F5F5F4F220F331F37
S11310E0441FAA1FA9F333D00E2E3AF0E0E830D003
S11310F091505040E695001CCAF729D0FE2F27D006
S1131100660F771F881FBB1F261737074807AB07D3
S1131110B0E809F0BB0B802DBF01FF2793585F4F48
S11311202AF09E3F510568F0B6C000C15F3FECF362
S1131130983EDCF3869577956795B795F7959F5F0D
S1131140C9F7880F911D9695879597F90895E1E061
S1131150660F771F881FBB1F621773078407BA07C0
S113116020F0621B730B840BBA0BEE1F88F7E0951B
S1131170089504D06894B111D9C00895BCD088F002
S11311809F5790F0B92F9927B751A0F0D1F0660F6F
S1131190771F881F991F1AF0BA95C9F712C0B1308A
S11311A081F0C3D0B1E00895C0C0672F782F88279D
S11311B0B85F39F0B93FCCF3869577956795B395C9
S11311C0D9F73EF490958095709561957F4F8F4F38
S11311D09F4F0895E89409C097FB3EF4909580953D
S11311E0709561957F4F8F4F9F4F9923A9F0F92FE9
S11311F096E9BB279395F695879577956795B79567
S1131200F111F8CFFAF4BB0F11F460FF1BC06F5F4C
S11312107F4F8F4F9F4F16C0882311F096E911C05E
S1131220772321F09EE8872F762F05C0662371F07F
S113123096E8862F70E060E02AF09A95660F771F93
S1131240881FDAF7880F9695879597F90895990F6F
S11312500008550FAA0BE0E8FEEF16161706E8077C
S1131260F907C0F012161306E407F50798F0621B9D
S1131270730B840B950B39F40A2661F0232B242B72
S1131280252B21F408950A2609F4A140A6958FEF91
S1131290811D811D089597F99F6780E870E060E0E3
S11312A008959FEF80EC089500240A9416161706FB
S11312B018060906089500240A9412161306140643
S11312C005060895092E0394000C11F4882352F0A6
S11312D0BB0F40F4BF2B11F460FF04C06F5F7F4F5E
S11312E08F4F9F4F089557FD9058440F551F59F045
S11312F05F3F71F04795880F97FB991F61F09F3FFF
S113130079F087950895121613061406551FF2CF27
S11313104695F1DF08C0161617061806991FF1CF77
S113132086957105610508940895E894BB2766279E
S11313307727CB0197F908958ADF08F48FEF089592
S11313400BD0C0CFB1DF28F0B6DF18F0952309F039
S1131350A2CFA7CF1124EACFC6DFA0F3959FD1F384
S1131360950F50E0551F629FF001729FBB27F00D4F
S1131370B11D639FAA27F00DB11DAA1F649F6627A4
S1131380B00DA11D661F829F2227B00DA11D621FF3
S1131390739FB00DA11D621F839FA00D611D221FAD
S11313A0749F3327A00D611D231F849F600D211D91
S11313B0822F762F6A2F11249F5750408AF0E1F034
S11313C088234AF0EE0FFF1FBB1F661F771F881F7D
S11313D091505040A9F79E3F510570F05CCFA6CFC5
S11313E05F3FECF3983EDCF3869577956795B79568
S11313F0F795E7959F5FC1F7FE2B880F911D969592
S1131400879597F908950024A7FD00942A0F301DAD
S1131410401D501D601D701D801D901D0895FC0110
S113142088279927E89421912032E9F3293010F094
S11314302E30C8F32B3239F02D3231F4689403C0C6
S113144045D0820F911D219120532A30C8F31EF4F8
S1131450909581959F4F089548E252E010C0FB019A
S1131460DC018D91019080190110D9F3990B089535
S1131470FB01DC0101900D920020E1F70895FA01CF
S1131480A191B081009719F41097E1F0CD01DC012E
S1131490CD010D90002011F4C00113C0FB01219176
S11314A0222319F02015D9F7F3CFFB012191201540
S11314B019F41E92119606C02223C1F70D90002044
S11314C0A1F7D001FA01A193B08308957AE0979F20
S11314D0902D879F802D910D11240895F894FFCFAE
S11314E001636F6E6E0061636B630A00646973630A
S11314F00061636B640A002F00484D00534F005392
S10B1500540061636B680A00EA
S9030000FC
