S0120000544553545F41544D454C2E7372656300
S1130000EEC00000ADC10000E6C100001FC2000048
S113001058C2000091C200009EC20000ABC20000A2
S1130020B8C20000FCC00000FAC00000F8C0000024
S1130030F6C00000F4C00000F2C00000F0C00000F0
S1130040EEC00000ECC00000EAC00000E8C0000000
S1130050E6C00000E4C00000E2C00000E0C0000010
S1130060DEC00000A5C20000DAC00000D8C0000055
S1130070D6C00000D4C00000D2C00000D0C0000030
S1130080CEC00000CCC00000CAC00000C9C000003F
S1130090C6C00000C4C00000C2C00000C0C0000050
S11300A0BEC00000BCC00000BAC00000B8C0000060
S11300B0B6C00000B4C00000B2C00000B0C0000070
S11300C0AEC00000ACC00000AAC00000A8C0000080
S11300D0A6C00000A4C00000A2C00000A0C0000090
S11300E09EC0000000407A10F35A00A0724E180916
S11300F00010A5D4E80000E87648170000E40B548B
S1130100020000CA9A3B000000E1F5050000809659
S11301109800000040420F000000A086010000008B
S1130120102700000000E803000000006400000045
S113013000000A00000000000100000000002C760E
S1130140D888DC674F0823DFC1DFAE59E1B1B79629
S1130150E5E3E453C63AE651997696E8E6C2842686
S1130160EB898C9B62ED407C6FFCEFBC9C9F40F262
S1130170BAA56FA5F490055A2AF75C936B6CF967DE
S11301806DC11BFCE0E40D47FEF520E6B500D0EDA3
S1130190902E0300943577050080841E080000200B
S11301A04E0A000000C80C333333330F986E1283A9
S11301B01141EF8D2114893BE65516CFFEE6DB187D
S11301C0D1844B381BF77C1D901DA4BBE424203242
S11301D084725E228100C9F124ECA1E53D2711243B
S11301E01FBECFEFD1E2DEBFCDBF00E00CBF12E0F7
S11301F0A0E0B2E0E0E7FCE100E00BBF02C0079042
S11302000D92AE32B107D9F724E0AEE2B2E001C0FC
S11302101D92A73EB207E1F701D20C94360EF0CE40
S11302201F920F920FB60F9211242F933F934F9367
S11302305F936F937F938F939F93AF93209130023B
S11302403091310240913202509133026091340274
S1130250709135028091360290913702A1E00E949C
S11302605E0B20933002309331024093320250935C
S11302703302609334027093350280933602909374
S11302803702AF919F918F917F916F915F914F91C1
S11302903F912F910F900FBE0F901F901895FC0166
S11302A0408121E030E002C0220F331F6A95E2F75B
S11302B0242B20830895FC01408121E030E002C01A
S11302C0220F331F6A95E2F7242B20830895FC0143
S11302D0908121E030E002C0220F331F6A95E2F7DB
S11302E02095292320830895F894E1E9F0E08081A2
S11302F081608083E1E7F0E080818160808378948D
S11303000895F894509130024091310230913202B4
S1130310209133028091340280913502809136021B
S113032080913702852F942FA32FB22F60919400D0
S113033070919500AB0160E070E07894DC0199273E
S11303408827840F951FA61FB71FBC01CD01689491
S113035013F896958795779567951694D1F7089530
S11303601F920F920FB60F9211248F939F93AF9306
S1130370BF931C9B14C080915A0290915B02A09180
S11303805C02B0915D020196A11DB11D80935A02D9
S113039090935B02A0935C02B0935D0213C08091C2
S11303A05A0290915B02A0915C02B0915D020197A8
S11303B0A109B10980935A0290935B02A0935C0255
S11303C0B0935D02BF91AF919F918F910F900FBE3B
S11303D00F901F9018951F920F920FB60F92112431
S11303E08F939F93AF93BF931D9B14C080915E0224
S11303F090915F02A0916002B09161020196A11DEB
S1130400B11D80935E0290935F02A0936002B0934B
S1130410610213C080915E0290915F02A09160021C
S1130420B09161020197A109B10980935E02909392
S11304305F02A0936002B0936102BF91AF919F915C
S11304408F910F900FBE0F901F9018951F920F92CF
S11304500FB60F9211248F939F93AF93BF934E9B2C
S113046014C08091520290915302A0915402B09111
S113047055020196A11DB11D80935202909353021F
S1130480A0935402B093550213C0809152029091EC
S11304905302A0915402B09155020197A109B109E8
S11304A08093520290935302A0935402B093550246
S11304B0BF91AF919F918F910F900FBE0F901F909E
S11304C018951F920F920FB60F9211248F939F933A
S11304D0AF93BF934F9B14C08091560290915702E3
S11304E0A0915802B09159020196A11DB11D8093AB
S11304F0560290935702A0935802B093590213C026
S11305008091560290915702A0915802B0915902DD
S11305100197A109B1098093560290935702A093C1
S11305205802B0935902BF91AF919F918F910F9050
S11305300FBE0F901F9018951F920F920FB60F9237
S113054011248F9381E080933E028F910F900FBE10
S11305500F901F9018951F920F920FB60F921124AF
S11305608F9381E080933D028F910F900FBE0F9087
S11305701F9018951F920F920FB60F9211248F930C
S113058081E080933D028F910F900FBE0F901F90DA
S113059018951F920F920FB60F9211248F9381E03A
S11305A080933C028F910F900FBE0F901F9018956F
S11305B01F920F920FB60F9211240BB60F928F93C6
S11305C09F93EF93FF938091C6008A3011F08D3092
S11305D061F4E0915102F0E0E252FC4F108281E0BC
S11305E080935002109251020EC0909151029336A2
S11305F050F4E091510291E09E0F90935102F0E08B
S1130600E252FC4F8083FF91EF919F918F910F9065
S11306100BBE0F900FBE0F901F901895CF93DF93D2
S1130620CDB7DEB7C155D1090FB6F894DEBF0FBE02
S1130630CDBF5ADE3ED508D65DD580915E0290913D
S11306405F02A0916002B09161020F2EF8EC9F2E20
S1130650F02D9F921F922CEA2F931F9224EB2F933D
S113066025E02F93BB24B394BF92BF92BF93AF9363
S11306709F938F930F2EF6E0AF2EF02D0F2EF5E003
S1130680CF2EF02DEE24E394FE2C06E042E051E060
S113069062E0CE010196E2D181E5FE013196A8ED3A
S11306A0B2E001900D928A95E1F7C12CD12C76012C
S11306B006EA1BE924EC3BE340E050E060E87FE31A
S11306C088ED92E030D280915A0290915B02A09121
S11306D05C02B0915D029F921F9228EA2F931F92B1
S11306E02AEA2F9323E02F93BF92BF92BF93AF9335
S11306F09F938F936894AA24A2F80F2EF3E0CF2E31
S1130700F02DEE24E394FE2C04E042E051E062E09C
S1130710CE010196A3D181E5FE013196A6E9B4E0AC
S113072001900D928A95E1F7C12CD12C760106EA4D
S11307301BE924EC3BE340E050E060E87FE386E91A
S113074094E0F1D18091560290915702A091580201
S1130750B09159022FEF2F931F921F921F922AE8F4
S11307602F9326E02F931F9224E22F93BF93AF93EE
S11307709F938F930F2EF3E0AF2EF02D6894CC242B
S1130780C1F80F2EFAE0EF2EFF24F394F02D03E0CE
S113079022E04BE051E061E0CE0101965FD181E5BA
S11307A0FE013196A3E4B4E001900D928A95E1F73D
S11307B00FB6F894DEBF0FBECDBF0F2EF5E9CF2ED6
S11307C0FFEBDF2EF6E5EF2EF5E3FF2EF02D0DEC1B
S11307D01CEC2CE43DE34AE959E969E97FE383E44D
S11307E094E0A1D1F2D180B3806880BB80914202B1
S11307F081110DC060E072E08EED93E0AAD7892BE1
S113080031F481E08093420285E092E030D580911A
S11308104202882309F41BC16BE072E08EED93E081
S113082098D7892B29F41092420280E192E01FD5D7
S113083066E172E08EED93E089D7909395048093FE
S11308409404009721F0BC0189E293E08BD766E120
S113085072E080E090E07AD79093950480939404BA
S1130860009769F056D7092E000CAA0BBB0B809396
S11308704C0290934D02A0934E02B0934F0266E156
S113088072E080E090E062D79093950480939404A2
S1130890009769F03ED7092E000CAA0BBB0B80937E
S11308A0480290934902A0934A02B0934B0266E136
S11308B072E080E090E04AD790939504809394048A
S11308C0009769F026D7092E000CAA0BBB0B809366
S11308D0440290934502A0934602B093470268E114
S11308E072E089E293E035D7892B31F481E080937B
S11308F041021092430209C06BE172E089E293E085
S113090028D7892B11F4109241026EE172E089E23A
S113091093E01FD7892B31F481E080934302109236
S1130920410209C061E272E089E293E012D7892BA7
S113093011F41092430280914102882399F088EDCA
S113094092E0B0D380914002882361F086E994E07C
S1130950A9D380913F02882329F084E292E087D4CE
S11309601092410280914302882309F467C0649B7A
S113097016C010923E0200915E0210915F02209117
S113098060023091610240914C0250914D0260919D
S11309904E0270914F0288ED92E024D303C088ED9B
S11309A092E07DD1659B18C0669B16C010923D02F3
S11309B000915A0210915B0220915C0230915D0219
S11309C0409148025091490260914A0270914B0251
S11309D086E994E007D303C086E994E060D10091EE
S11309E056021091570220915802309159024091B9
S11309F0440250914502609146027091470283E49B
S1130A0094E0F0D260E986E0AAD360933802709350
S1130A10390280933A0290933B0204E712E024E007
S1130A2046E058D6F80101900020E9F731978AE0B2
S1130A3090E091838083C8011AD409C088ED92E0C4
S1130A402ED186E994E02BD183E494E028D18FE180
S1130A509EE40197F1F700C00000C8CE2F923F92A8
S1130A604F925F926F927F928F929F92AF92CF92AA
S1130A70DF92EF92FF920F931F93CF93DF93CDB743
S1130A80DEB74C01162F6C2D298C3A8CDB8C88A197
S1130A904D885E886F88788CF401438A548A658A0D
S1130AA0768A10835683458327830087F282E18206
S1130AB0C382A48232862186D3862C8D3D8D3587D0
S1130AC024872E8D3F8D37872687828B90E0918BEC
S1130AD0808BC701E4DB6A2DC701E1DB113049F4E7
S1130AE08CE090E0F401908F878B6D2DC101D7DBF2
S1130AF007C0123029F48CEB92E0F401908F878BBD
S1130B00C401DF91CF911F910F91FF90EF90DF907F
S1130B10CF90AF909F908F907F906F905F904F9009
S1130B203F902F900895CF92DF92EF92FF920F9310
S1130B301F93CF93DF93EC01FC01EB5BFF4F4083EA
S1130B4051836283738334960083118322833383B6
S1130B503496C082D182E282F382198E1A8E1B8E61
S1130B601C8E19A21AA21BA21CA26F89788D660F73
S1130B70771F8C01035C1F4F80E090E086D4F8015E
S1130B8060837183828393831DA21EA21FA218A671
S1130B9019A61AA61BA61CA61DA61EA61FA618AA41
S1130BA019AA1AAA1BAA1CAA1DAA1EAA1FAA18AE11
S1130BB019AE1AAE1BAE1CAEDF91CF911F910F91EF
S1130BC0FF90EF90DF90CF90089584B5836884BD43
S1130BD085B5896085BDE0E8F0E08081816280832D
S1130BE0E1E8F0E0808189608083E0EBF0E08081DF
S1130BF083628083E1EBF0E0808181608083E0EABE
S1130C00F0E08081896A8083E1EAF0E08081896094
S1130C1080830895CF93DF93FC018081813051F468
S1130C20EF0167818581968146DB68858D819E8190
S1130C304EDB0EC0823061F4A485B585808991892C
S1130C4011969C938E930684F785E02D1182108271
S1130C50DF91CF910895CF93DF93FC0180818130A0
S1130C6051F4EF0167818581968131DB68858D813F
S1130C709E8121DB11C0823079F4A485B58511965B
S1130C801C921E92A685B78580899189919581953C
S1130C90910911969C938E93DF91CF910895CF93F0
S1130CA0DF93DC012C91213051F4EC016F818D81B3
S1130CB09E810DDB68858D819E8109DB0FC022300A
S1130CC069F4DC011C96ED91FC911D971182108250
S1130CD01E96ED91FC911F9711821082DF91CF91A6
S1130CE008954F925F926F927F928F929F92AF92EC
S1130CF0BF92CF92DF92EF92FF92CF93DF93CDB763
S1130D00DEB72A970FB6F894DEBF0FBECDBF9A8721
S1130D108987F7DA2B013C01A985BA85D1966D93B1
S1130D207D938D939C93D497FD0181AD92ADA3AD3A
S1130D30B4AD53014201881A990AAA0ABB0A85AACA
S1130D4096AAA7AAB0AE81A192A1A3A1B4A1C58C71
S1130D50D68CE78CF0A0BC01CD016C197D098E09FD
S1130D609F0995D36B017C01A985BA8595966D93EE
S1130D707D938D939C93989759966D917D918D91C8
S1130D809C915C9784D39B01AC01C701B6017BD2D3
S1130D906D837E838F839887C501B40176D369837D
S1130DA07A838B839C839B01AC016D817E818F81CF
S1130DB09885D2D26D837E838F839887E985FA855F
S1130DC061A772A783A794A785A496A4A7A4B0A893
S1130DD029813A814B815C81C701B6010CD49B0106
S1130DE0AC01C501B40150D24B015C01A985BA859F
S1130DF09D966D937D938D939C93D097FD01EB5BB2
S1130E00FF4F2081318142815381C701B601F3D361
S1130E1069837A838B839C83E985FA85E75BFF4F3B
S1130E2020813181428153816D817E818F819885BA
S1130E30E2D39B01AC0169817A818B819C8124D2AC
S1130E4069837A838B839C83E985FA85E35BFF4F0F
S1130E502081318142815381C501B401CCD39B01EE
S1130E60AC0169817A818B819C810ED24B015C013A
S1130E70E985FA85EF5BFF4F6083718382839383F7
S1130E80C701B601D1D2E985FA85618F728F838F4C
S1130E90948F41AE52AE63AE74AE7288E72CF12CDF
S1130EA0B7010F2C000C880B990BF1D29B01AC01FC
S1130EB0C501B4019CD318167CF4C984DA84B1E466
S1130EC0CB0ED11C672D70E080E090E0DED2F601FD
S1130ED06083718382839383E985FA85EF5BFF4F97
S1130EE080809180A280B380662777276E197F095E
S1130EF0072E000C880B990BCAD26B017C019B0155
S1130F00AC01C501B40124D2882354F489859A859F
S1130F108F5B9F4FDC01CD92DD92ED92FC92139793
S1130F202A960FB6F894DEBF0FBECDBFDF91CF91E6
S1130F30FF90EF90DF90CF90BF90AF909F908F90F5
S1130F407F906F905F904F900895AF92BF92CF9231
S1130F50DF92EF92FF920F931F93CF93DF938C0155
S1130F60FC01EF5BFF4FC080D180E280F380FC0185
S1130F70C089D1895E01F5E0AF0EB11CB5010B2C1F
S1130F80000C880B990B83D29B01AC01C701B601FD
S1130F902ED3181624F4F801B18AA08A18C0259714
S1130FA0BE010D2E000C880B990B71D29B01AC0174
S1130FB0C701B601CDD1882324F4F801D18BC08BAD
S1130FC006C0C701B60130D2F801718B608BDF9186
S1130FD0CF911F910F91FF90EF90DF90CF90BF9032
S1130FE0AF9008958F929F92AF92BF92EF92FF922B
S1130FF00F931F93CF93DF9300D01F92CDB7DEB72B
S11310007C0109831A832B833C8389819A81AB8178
S1131010BC81F701858F968FA78FB0A341A352A3FC
S113102063A374A3C7015DDEC7018FDFF70180816D
S1131030813051F40484F585E02DD70150968D91CB
S11310409C91519791838083F701EF5BFF4F8080E0
S11310509180A280B38020E030E0A901C501B401F1
S1131060C6D218161CF4C701D5DD0DC020E030E04F
S1131070A901C501B4016CD188231CF4C701EBDDBF
S113108002C0C7010CDE0F900F900F900F90DF91FC
S1131090CF911F910F91FF90EF90BF90AF909F90D1
S11310A08F90089520E530E0FC01318B208BB2CD88
S11310B00895F8948AB180738AB98DB18F708DB90F
S11310C084B18F7C84B98BB180738BB985B18F7CEB
S11310D085B98EB1806F8EB9E9E6F0E080819FEF2B
S11310E09083EAE6F0E08081856580838DB39DBBC3
S11310F078940895EAE7F0E0808187688083ECE7DC
S1131100F0E080818064808380818F778083EBE747
S1131110F0E08081877F80830895863039F4ECE79E
S1131120F0E08081807F8660808308C08730A1F4EE
S1131130ECE7F0E08081807F87608083EAE7F0E07D
S113114080818064808380917A0086FDFCCF8091C9
S1131150780090917900089580E090E008950F93CD
S11311601F93CF93DF93082F162FC0E0D0E030C039
S1131170802FD3DF9093630280936202BC0180E0EE
S113118090E083D120E030E44CE955E434D220E00F
S113119030E040E85AE32FD29B01AC016093700227
S11311A070937102809372029093730260916C0247
S11311B070916D0280916E0290916F0265D0609380
S11311C06C0270936D0280936E0290936F0221966D
S11311D0612F70E0C617D7075CF2072E000C880B4E
S11311E0990B55D19B01AC0160916C0270916D0219
S11311F080916E0290916F02AFD0609368027093F9
S1131200690280936A0290936B0220E030EE4CE115
S113121055E439D020E030E045E353E49DD06093B9
S11312206402709365028093660290936702109241
S11312306C0210926D0210926E0210926F02DF9196
S1131240CF911F910F9108951092C50087E6809366
S1131250C40088E98093C10086E08093C2000895A9
S11312609091C00095FFFCCF8093C6000895CF9362
S1131270DF93EC0102C02196F3DF88818111FBCF5B
S1131280DF91CF9108955058BB27AA270ED075C17E
S113129066D130F06BD120F031F49F3F11F41EF48D
S11312A05BC10EF4E095E7FB51C1E92F77D180F3E0
S11312B0BA17620773078407950718F071F49EF54F
S11312C08FC10EF4E0950B2EBA2FA02D0B01B9019E
S11312D090010C01CA01A0011124FF27591B99F0A8
S11312E0593F50F4503E68F11A16F040A22F232FB4
S11312F0342F4427585FF3CF469537952795A79504
S1131300F0405395C9F77EF41F16BA0B620B730BAA
S1131310840BBAF09150A1F0FF0FBB1F661F771F1B
S1131320881FC2F70EC0BA0F621F731F841F48F4D0
S1131330879577956795B795F7959E3F08F0B3CF56
S11313409395880F08F09927EE0F97958795089540
S1131350D9D008F481E008950CD00FC107D140F032
S1131360FED030F021F45F3F19F0F0C0511139C1C3
S1131370F3C014D198F39923C9F35523B1F3951B02
S1131380550BBB27AA2762177307840738F09F5FA2
S11313905F4F220F331F441FAA1FA9F333D00E2E11
S11313A03AF0E0E830D091505040E695001CCAF77E
S11313B029D0FE2F27D0660F771F881FBB1F261743
S11313C037074807AB07B0E809F0BB0B802DBF0116
S11313D0FF2793585F4F2AF09E3F510568F0B6C02F
S11313E000C15F3FECF3983EDCF3869577956795F3
S11313F0B795F7959F5FC9F7880F911D96958795C7
S113140097F90895E1E0660F771F881FBB1F6217E5
S113141073078407BA0720F0621B730B840BBA0BA3
S1131420EE1F88F7E095089504D06894B111D9C0EF
S11314300895BCD088F09F5790F0B92F9927B751E1
S1131440A0F0D1F0660F771F881F991F1AF0BA9584
S1131450C9F712C0B13081F0C3D0B1E00895C0C063
S1131460672F782F8827B85F39F0B93FCCF386957A
S113147077956795B395D9F73EF4909580957095D7
S113148061957F4F8F4F9F4F0895E89409C097FB54
S11314903EF490958095709561957F4F8F4F9F4F47
S11314A09923A9F0F92F96E9BB279395F69587958B
S11314B077956795B795F111F8CFFAF4BB0F11F44E
S11314C060FF1BC06F5F7F4F8F4F9F4F16C08823F5
S11314D011F096E911C0772321F09EE8872F762F2B
S11314E005C0662371F096E8862F70E060E02AF06C
S11314F09A95660F771F881FDAF7880F9695879558
S113150097F90895990F0008550FAA0BE0E8FEEF2C
S113151016161706E807F907C0F012161306E407B3
S1131520F50798F0621B730B840B950B39F40A26AC
S113153061F0232B242B252B21F408950A2609F48A
S1131540A140A6958FEF811D811D089597F99F678E
S113155080E870E060E008959FEF80EC0895002437
S11315600A941616170618060906089500240A9404
S113157012161306140605060895092E0394000C8A
S113158011F4882352F0BB0F40F4BF2B11F460FF19
S113159004C06F5F7F4F8F4F9F4F089557FD905842
S11315A0440F551F59F05F3F71F04795880F97FB23
S11315B0991F61F09F3F79F08795089512161306DD
S11315C01406551FF2CF4695F1DF08C0161617060C
S11315D01806991FF1CF8695710561050894089541
S11315E0E894BB2766277727CB0197F908958ADF0C
S11315F008F48FEF08950BD0C0CFB1DF28F0B6DF29
S113160018F0952309F0A2CFA7CF1124EACFC6DFA3
S1131610A0F3959FD1F3950F50E0551F629FF00101
S1131620729FBB27F00DB11D639FAA27F00DB11D5A
S1131630AA1F649F6627B00DA11D661F829F2227E3
S1131640B00DA11D621F739FB00DA11D621F839F6A
S1131650A00D611D221F749F3327A00D611D231F40
S1131660849F600D211D822F762F6A2F11249F578E
S113167050408AF0E1F088234AF0EE0FFF1FBB1FB1
S1131680661F771F881F91505040A9F79E3F510550
S113169070F05CCFA6CF5F3FECF3983EDCF3869509
S11316A077956795B795F795E7959F5FC1F7FE2BFB
S11316B0880F911D9695879597F908950024A7FDA5
S11316C000942A0F301D401D501D601D701D801D8B
S11316D0901D0895EF920F931F93CF93DF93E8012A
S11316E047FD02C034E001C034E1042E000C550B68
S11316F057FF03C0519541955109E32E022F242F22
S1131700AE0166D0CE01DF91CF911F910F91EF9082
S11317100895FC0188279927E89421912032E9F360
S1131720293010F02E30C8F32B3239F02D3231F439
S1131730689403C045D0820F911D219120532A3013
S1131740C8F31EF4909581959F4F08954EE252E0A0
S113175010C0FB01DC018D91019080190110D9F3B7
S1131760990B0895FB01DC0101900D920020E1F733
S11317700895FA01A191B081009719F41097E1F04E
S1131780CD01DC01CD010D90002011F4C00113C086
S1131790FB012191222319F02015D9F7F3CFFB0186
S11317A02191201519F41E92119606C02223C1F727
S11317B00D900020A1F7D001FA01A193B083089500
S11317C07AE0979F902D879F802D910D1124089585
S11317D08F929F92AF92BF92CF92DF92EF92FF923D
S11317E00F931F93CF93DF93CDB7DEB729970FB62F
S11317F0F894DEBF0FBECDBF6A01122FB02E2BE3CB
S1131800201720F0FF24F394F00E02C02CE3F22EF4
S11318100F2D27E0AE014F5F5F4F50D1BC014981CE
S1131820842F8970813031F0E1FC06C0E0FE06C0EF
S113183090E205C09DE203C09BE201C090E05E2DF2
S1131840507143FF3CC0911102C083E001C084E0A9
S1131850811718F4212F281B01C020E051110BC05F
S1131860F601822F30E2882319F031938150FBCFA7
S1131870C20ED11C20E0992329F0D6019C93F601D5
S113188031966F01C6010396E2FE0AC03EE4D6011A
S11318903C9341E411964C93119712963C9306C0E5
S11318A03EE6F601308341E641833283FC01322F68
S11318B040E2332309F442C041933150FACF42FF4E
S11318C044C0911102C083E001C084E0811718F480
S11318D0212F281B01C020E051110BC0F601822FDB
S11318E030E2882319F031938150FBCFC20ED11C12
S11318F020E0992329F0D6019C93F60131966F01DB
S1131900C6010396E2FE0BC039E4D6013C933EE4E3
S113191011963C93119736E412963C9307C039E62E
S1131920F60130833EE6318336E63283FC01322F02
S113193040E2332319F041933150FBCFFC01E20F15
S1131940F11D10828EEF9FEFA6C021E030E09111CF
S113195002C020E030E0161617061CF4FB01319695
S113196002C0E1E0F0E02E0F3F1FBB2021F0EB2D81
S1131970F0E0319602C0E0E0F0E02E0F3F1FE12FCF
S1131980F0E02E173F071CF4121B212F01C020E0AA
S11319908E2D887159F4F601822F30E2882319F0D4
S11319A031938150FBCFC20ED11C20E0992329F042
S11319B0D6019C93F60131966F0151110BC0F601CB
S11319C0822F90E3882319F091938150FBCFC20EAC
S11319D0D11C20E00F2D060F9A81342F307144FF63
S11319E003C0913309F40150101624F4093018F09F
S11319F008E001C001E0AB0177FF02C040E050E025
S1131A00FB01E41BF50BA1E0B0E0AC0FBD1FEA0F36
S1131A10FB1F8EE2A82E4B01801A91080B2D10E0BB
S1131A201195019511094F3FBFEF5B0721F4D601D2
S1131A30AC9211966D01641775072CF08416950607
S1131A4014F4818101C080E3415051093196D601DB
S1131A5011967D014017510724F0D6018C9367013C
S1131A60E2CF6417750739F4963320F4953319F4EB
S1131A70311101C081E3F6018083F701822F90E2E6
S1131A80882319F091938150FBCFF701E20FF11DE8
S1131A90108280E090E029960FB6F894DEBF0FBE66
S1131AA0CDBFDF91CF911F910F91FF90EF90DF9009
S1131AB0CF90BF90AF909F908F900895283008F0FA
S1131AC027E03327DA01990F311D87FD91600096D5
S1131AD06105710539F432602E5F3D9330E32A9538
S1131AE0E1F708959F3F30F080387105610509F0F2
S1131AF03C5F3C5F3D93913008F08068911DDF931B
S1131B00CF931F930F93FF92EF92192F987F96957F
S1131B10E92F96959695E90FFF27E25CFE4F9927EA
S1131B203327EE24FF24A701E701059008940794C6
S1131B3028F4360FE71EF81E491F511D660F771F44
S1131B40881F991F0694A1F70590079428F4E70EBF
S1131B50F81E491F561FC11D770F881F991F661F46
S1131B600694A1F70590079428F4F80E491F561F10
S1131B70C71FD11D880F991F661F771F0694A1F7F1
S1131B800590079420F4490F561FC71FD81F990FBB
S1131B90661F771F881F0694A9F784911095177004
S1131BA041F0D695C79557954795F794E7941A95BC
S1131BB0C1F7E4EEF0E068941590159135916591C4
S1131BC0959105907FE27395E118F10A430B560B4A
S1131BD0C90BD009C0F7E10CF11E431F561FC91FE2
S1131BE0D01D7EF4703311F48A95E6CFE894015049
S1131BF030F0080F0AF40027021708F4202F239569
S1131C00022F7A3328F079E37D932A95E9F710C0FF
S1131C107D932A9589F60694979567953795179538
S1131C201794E118F10A430B560BC90BD00998F02D
S1131C3023957E9173957A3308F070E37C93201397
S1131C40B8F77E9170617D9330F0839571E37D9355
S1131C5070E32A95E1F71124EF90FF900F911F9103
S1131C60CF91DF91992787FD90950895F894FFCF40
S1131C70636F6E6E0061636B630A00646973630073
S1131C8061636B640A002F00484D004853005354AD
S1111C9000534F0061636B686F6D65640A005A
S9030000FC
