:1000000077C0000028C1000061C100009AC1000053
:10001000D3C100000CC200001FC2000032C20000A9
:1000200045C2000085C0000083C0000081C0000000
:100030007FC000007DC000007BC0000079C00000D0
:1000400077C0000075C0000073C0000071C00000E0
:100050006FC000006DC000006BC0000069C00000F0
:1000600067C0000038C2000063C0000061C000002B
:100070005FC000005DC000005BC0000059C0000010
:1000800057C0000055C0000053C0000052C000001F
:100090004FC000004DC000004BC0000049C0000030
:1000A00047C0000045C0000043C0000041C0000040
:1000B0003FC000003DC000003BC0000039C0000050
:1000C00037C0000035C0000033C0000031C0000060
:1000D0002FC000002DC000002BC0000029C0000070
:1000E00027C000006364696E6F70737578585B0099
:1000F00011241FBECFEFD1E2DEBFCDBF00E00CBFA9
:1001000012E0A0E0B2E0E6EAFDE100E00BBF02C0D1
:1001100007900D92AE30B107D9F722E0AEE0B2E021
:1001200001C01D92A23FB207E1F70BD20C94D10E91
:1001300067CF1F920F920FB60F9211242F933F9308
:100140004F935F936F937F938F939F93AF93209180
:100150000E0230910F0240911002509111026091F5
:100160001202709113028091140290911502A1E085
:10017000C2D720930E0230930F0240931002509387
:1001800011026093120270931302809314029093F1
:100190001502AF919F918F917F916F915F914F91D8
:1001A0003F912F910F900FBE0F901F901895FC015B
:1001B000408121E030E002C0220F331F6A95E2F750
:1001C000242B20830895FC01408121E030E002C00F
:1001D000220F331F6A95E2F7242B20830895FC0138
:1001E000908121E030E002C0220F331F6A95E2F7D0
:1001F0002095292320830895F89450910E02409170
:100200000F02309110022091110280911202809110
:1002100013028091140280911502852F942FA32F31
:10022000B22F6091940070919500AB0160E070E096
:100230007894DC0199278827840F951FA61FB71F84
:10024000BC01CD01689413F89695879577956795CD
:100250001694D1F708951F920F920FB60F921124A2
:100260008F939F93AF93BF931C9B14C080912102E7
:1002700090912202A0912302B09124020196A11D27
:10028000B11D8093210290932202A0932302B09388
:10029000240213C08091210290912202A091230296
:1002A000B09124020197A109B10980932102909392
:1002B0002202A0932302B0932402BF91AF919F9199
:1002C0008F910F900FBE0F901F9018951F920F9255
:1002D0000FB60F9211248F939F93AF93BF931D9BE3
:1002E00014C08091250290912602A0912702B0911E
:1002F00028020196A11DB11D80932502909326022C
:10030000A0932702B093280213C0809125029091F8
:100310002602A0912702B09128020197A109B109F4
:100320008093250290932602A0932702B09328027F
:10033000BF91AF919F918F910F900FBE0F901F9023
:1003400018951F920F920FB60F9211248F939F93BF
:10035000AF93BF934E9B14C08091190290911A02E3
:10036000A0911B02B0911C020197A109B1098093D1
:10037000190290931A02A0931B02B0931C0213C09F
:100380008091190290911A02A0911B02B0911C0257
:100390000196A11DB11D8093190290931A02A0939A
:1003A0001B02B0931C02BF91AF919F918F910F9050
:1003B0000FBE0F901F9018951F920F920FB60F92BD
:1003C00011248F939F93AF93BF934F9B14C0809141
:1003D0001D0290911E02A0911F02B0912002019671
:1003E000A11DB11D80931D0290931E02A0931F02B8
:1003F000B093200213C080911D0290911E02A09123
:100400001F02B09120020197A109B10980931D023A
:1004100090931E02A0931F02B0932002BF91AF9150
:100420009F918F910F900FBE0F901F9018951F9264
:100430000F920FB60F9211248F93649B04C082B168
:10044000826082B903C082B18D7F82B98F910F9093
:100450000FBE0F901F9018951F920F920FB60F921C
:1004600011248F93659B04C082B1826082B903C05E
:1004700082B18D7F82B98F910F900FBE0F901F9028
:1004800018951F920F920FB60F9211248F93669BAF
:1004900004C082B1826082B903C082B18D7F82B90B
:1004A0008F910F900FBE0F901F9018951F920F9273
:1004B0000FB60F9211248F93679B04C082B18260A4
:1004C00082B903C082B18D7F82B98F910F900FBE28
:1004D0000F901F9018951F920F920FB60F92112434
:1004E0000BB60F928F939F93EF93FF938091C6006B
:1004F0008A3011F08D3061F4E0911802F0E0E75D90
:10050000FD4F108281E080931702109218020EC0F6
:1005100090911802933650F4E091180291E09E0FEA
:1005200090931802F0E0E75DFD4F8083FF91EF911B
:100530009F918F910F900BBE0F900FBE0F901F9049
:100540001895CF93DF93CDB7DEB7CC59D1090FB64D
:10055000F894DEBF0FBECDBF8AB183738AB98DB167
:100560008F708DB984B18F7C84B98BB183738BB953
:100570008EB18F708EB985B18F7C85B9F894E9E61C
:10058000F0E08081BB24BA94B082EAE6F0E080819A
:10059000856580838DB38C618DBB38D380911D02BE
:1005A00090911E02A0911F02B0912002BF921F9253
:1005B0002AE82F9326E02F931F920F2EF4E29F2E0E
:1005C000F02D9F92BF93AF939F938F930F2EF3E0E5
:1005D000AF2EF02D6894CC24C1F80F2EFAE0EF2E48
:1005E000FF24F394F02D03E022E04BE051E061E0C2
:1005F000CE010196D8D0C12CD12C76010DEC1CEC8B
:100600002CE43DE340E050E060E87FE3CE0101965A
:1006100021D18091190290911A02A0911B02B091F0
:100620001C02BF921F9227E42F9327E02F931F9263
:100630009F92BF93AF939F938F93AA24A394C12CAF
:100640000F2EFAE0EF2EFF24F394F02D01E020E0CE
:100650004BE051E061E0CE01815B9F4FA4D0C12C03
:10066000D12C7601970186014AE959E969E97FE3CE
:10067000CE01815B9F4FEED084B5836884BD85B584
:10068000896085BDE0E8F0E0808181628083E1E8F7
:10069000F0E0808189608083E0EBF0E0808183621C
:1006A0008083E1EBF0E0808189608083E0EAF0E024
:1006B0008081896A8083E1EAF0E0808189608083BB
:1006C000E1E9F0E0808181608083E1E7F0E0808112
:1006D0008160808378940FB6F894DEBF0FBECDBFE3
:1006E00064E072E089E292E021D5892B21F481E077
:1006F0008093160209C067E072E089E292E016D5A5
:10070000892B11F41092160280911602882309F4A5
:1007100043C080E092E09F938F930F2EFAE0EF2E7C
:10072000F2E0FF2EF02DFF92EF9289E292E09F938C
:100730008F9333D500911D0210911E0220911F024C
:10074000309120024091000250910102609102021A
:1007500070910302CE010196C7D08AA98F9389A90F
:100760008F9388A98F938FA58F93FF92EF920EE8B6
:1007700012E01F930F93E3D4F80101900020E9F7F2
:1007800031978AE090E091838083C80152D20FB6FE
:10079000F894DEBF0FBECDBF8FE39CE90197F1F760
:1007A00000C000009DCF6F927F928F929F92AF9278
:1007B000CF92DF92EF92FF920F931F93CF93DF932D
:1007C000CDB7DEB74C01162F6C2D6D887E88DF8883
:1007D0003A8D89899A89AB89BC89F401808B918B88
:1007E000A28BB38B10835683458327830087F282C5
:1007F000E182C382A48272866186D386888D998DB8
:100800009587848737873687C701D1DC6A2DC70172
:10081000CEDC113049F48CE090E0F401958B848BB0
:100820006D2DC301C4DC07C0123029F48CEB92E0BB
:10083000F401958B848BC401DF91CF911F910F91AF
:10084000FF90EF90DF90CF90AF909F908F907F9030
:100850006F900895CF92DF92EF92FF920F931F93C4
:10086000FC01DC01AE5BBF4F4D935D936D937C93B8
:10087000139714960D931D932D933C9313971496F1
:10088000CD92DD92ED92FC921397168A178A108E04
:10089000118E168E178E10A211A280E090E0A8E4AF
:1008A000B3E482AF93AFA4AFB5AF12A213A214A268
:1008B00015A216A217A210A611A612A613A614A678
:1008C00015A616A617A610AA11AA12AA13AA14AA48
:1008D00015AA16AA17AA10AE11AE1F910F91FF907C
:1008E000EF90DF90CF9008954F925F926F927F923A
:1008F0008F929F92AF92BF92EF92FF920F931F93AE
:10090000CF93DF93CDB7DEB760970FB6F894DEBF15
:100910000FBECDBF7C0109831A832B833C83898161
:100920009A81AB81BC81F701828F938FA48FB58FA1
:10093000468F578F60A371A35FDCF70166A777A787
:1009400080AB91AB86A897A8A0ACB1AC8B019C0101
:10095000081919092A093B0948015901D701D296FA
:100960000D931D932D933C93D59766AB77AB80AFDA
:1009700091AF468D578D60A171A1828D938DA48D0D
:10098000B58D8A019B01081B190B2A0B3B0B0D83AC
:100990001E832F83388702A313A324A335A386893C
:1009A0009789A08DB18D081B190B2A0B3B0BC90130
:1009B000B801A501940173D329873A874B875C87D7
:1009C000F70126A337A340A751A742A453A464A4C8
:1009D00075A42D813E814F815885C501B40150D346
:1009E00053014201860E971EA81EB91E82A693A629
:1009F000A4A6B5A6EE5BFF4F408051806280738055
:100A0000CA01B90126D2A3019201D7D26D877E8790
:100A10008F87988BF701EA5BFF4F4080518062809F
:100A2000738069857A858B859C8513D2A301920199
:100A3000C4D29B01AC016D857E858F85988906D1D6
:100A400069877A878B879C87F701E65BFF4F408039
:100A5000518062807380C501B401FBD1A301920172
:100A6000ACD29B01AC0169857A858B859C85EED0E3
:100A70004B015C01F701FE9660837183828393834F
:100A80000D811E812F813885D70156960D931D93B8
:100A90002D933C935997DA964D905D906D907C9094
:100AA000DD979B01AC01C301B20134D1882324F44A
:100AB000F7018785868721C0C501B40197D19B01C5
:100AC000772324F422273327261B370BB901330F52
:100AD000880B990BBED1A301920120D14B015C017F
:100AE000D7011F966C9170E080E090E0B2D1A50133
:100AF000940163D280D1F7016687D7018C91813050
:100B000049F41C96ED91FC911D971E968C9190E0F6
:100B100091838083F701FE9680809180A280B380CC
:100B200020E030E040E251E4C501B40142D21816A1
:100B3000D4F4F7018081813071F4678185819681D9
:100B400042DBD70118966C91189715968D919C9160
:100B5000169745DB46C0823009F043C0F701868511
:100B6000878310863EC020E030E040E251ECC501B2
:100B7000B401D0D08823F4F4D7018C91813071F482
:100B800017966C91179715968D919C91169727DB68
:100B9000F70160858581968116DB23C0823009F5D7
:100BA000D70117961C9217971E968C911E97189630
:100BB0008C9317C0F7018081813071F46781858142
:100BC00096810DDBD70118966C91189715968D912B
:100BD0009C91169704DB05C0823019F4F701178247
:100BE000108660960FB6F894DEBF0FBECDBFDF91C2
:100BF000CF911F910F91FF90EF90BF90AF909F907A
:100C00008F907F906F905F904F9008951092C500E5
:100C100087E68093C40088E98093C10086E08093D2
:100C2000C20008959091C00095FFFCCF8093C6004C
:100C30000895CF93DF93EC0102C02196F3DF888102
:100C40008111FBCFDF91CF9108955058BB27AA2780
:100C50000ED075C166D130F06BD120F031F49F3FDA
:100C600011F41EF45BC10EF4E095E7FB51C1E92FCE
:100C700077D180F3BA17620773078407950718F0D6
:100C800071F49EF58FC10EF4E0950B2EBA2FA02DB6
:100C90000B01B90190010C01CA01A0011124FF2729
:100CA000591B99F0593F50F4503E68F11A16F04024
:100CB000A22F232F342F4427585FF3CF4695379523
:100CC0002795A795F0405395C9F77EF41F16BA0BE8
:100CD000620B730B840BBAF09150A1F0FF0FBB1F96
:100CE000661F771F881FC2F70EC0BA0F621F731FDF
:100CF000841F48F4879577956795B795F7959E3F3C
:100D000008F0B3CF9395880F08F09927EE0F9795C9
:100D100087950895D9D008F481E008950CD00FC1CB
:100D200007D140F0FED030F021F45F3F19F0F0C061
:100D3000511139C1F3C014D198F39923C9F3552344
:100D4000B1F3951B550BBB27AA27621773078407BE
:100D500038F09F5F5F4F220F331F441FAA1FA9F374
:100D600033D00E2E3AF0E0E830D091505040E69566
:100D7000001CCAF729D0FE2F27D0660F771F881FC7
:100D8000BB1F261737074807AB07B0E809F0BB0BB6
:100D9000802DBF01FF2793585F4F2AF09E3F5105DA
:100DA00068F0B6C000C15F3FECF3983EDCF3869577
:100DB00077956795B795F7959F5FC9F7880F911D50
:100DC0009695879597F90895E1E0660F771F881F3C
:100DD000BB1F621773078407BA0720F0621B730BEF
:100DE000840BBA0BEE1F88F7E095089504D0689441
:100DF000B111D9C00895BCD088F09F5790F0B92F99
:100E00009927B751A0F0D1F0660F771F881F991F5F
:100E10001AF0BA95C9F712C0B13081F0C3D0B1E071
:100E20000895C0C0672F782F8827B85F39F0B93F81
:100E3000CCF3869577956795B395D9F73EF4909561
:100E40008095709561957F4F8F4F9F4F0895E894DF
:100E500009C097FB3EF490958095709561957F4F02
:100E60008F4F9F4F9923A9F0F92F96E9BB279395B0
:100E7000F695879577956795B795F111F8CFFAF4C0
:100E8000BB0F11F460FF1BC06F5F7F4F8F4F9F4FF1
:100E900016C0882311F096E911C0772321F09EE84F
:100EA000872F762F05C0662371F096E8862F70E0B5
:100EB00060E02AF09A95660F771F881FDAF7880F8F
:100EC0009695879597F90895990F0008550FAA0BE5
:100ED000E0E8FEEF16161706E807F907C0F012164D
:100EE0001306E407F50798F0621B730B840B950B50
:100EF00039F40A2661F0232B242B252B21F40895A5
:100F00000A2609F4A140A6958FEF811D811D089541
:100F100097F99F6780E870E060E008959FEF80ECAC
:100F2000089500240A94161617061806090608954F
:100F300000240A9412161306140605060895092EB5
:100F40000394000C11F4882352F0BB0F40F4BF2B24
:100F500011F460FF04C06F5F7F4F8F4F9F4F089564
:100F600057FD9058440F551F59F05F3F71F047955A
:100F7000880F97FB991F61F09F3F79F0879508953F
:100F8000121613061406551FF2CF4695F1DF08C05E
:100F9000161617061806991FF1CF8695710561057B
:100FA00008940895E894BB2766277727CB0197F923
:100FB00008958ADF08F48FEF08950BD0C0CFB1DF1A
:100FC00028F0B6DF18F0952309F0A2CFA7CF11249F
:100FD000EACFC6DFA0F3959FD1F3950F50E0551FE0
:100FE000629FF001729FBB27F00DB11D639FAA277E
:100FF000F00DB11DAA1F649F6627B00DA11D661FCD
:10100000829F2227B00DA11D621F739FB00DA11DED
:10101000621F839FA00D611D221F749F3327A00DA7
:10102000611D231F849F600D211D822F762F6A2F43
:1010300011249F5750408AF0E1F088234AF0EE0FC8
:10104000FF1FBB1F661F771F881F91505040A9F7D5
:101050009E3F510570F05CCFA6CF5F3FECF3983E0A
:10106000DCF3869577956795B795F795E7959F5F3C
:10107000C1F7FE2B880F911D9695879597F90895D6
:10108000DB018F939F932DD0BF91AF91A29F800DD5
:10109000911DA39F900DB29F900D11240895A1E280
:1010A0001A2EAA1BBB1BFD010DC0AA1FBB1FEE1FE2
:1010B000FF1FA217B307E407F50720F0A21BB30B2D
:1010C000E40BF50B661F771F881F991F1A9469F7A9
:1010D00060957095809590959B01AC01BD01CF0105
:1010E000089515D0A59F900DB49F900DA49F800DDD
:1010F000911D112408950024A7FD00942A0F301D8E
:10110000401D501D601D701D801D901D0895A29FE3
:10111000B001B39FC001A39F700D811D1124911DCB
:10112000B29F700D811D1124911D0895FB01DC01FA
:101130008D91019080190110D9F3990B08950F93A7
:101140001F93CF93DF93CDB7DEB72E970FB6F894EA
:10115000DEBF0FBECDBF0E891F8986E08C831A8348
:1011600009838FEF9FE79E838D83AE01465E5F4FBD
:10117000688D798DCE01019631D0EF81F885E00F31
:10118000F11F10822E960FB6F894DEBF0FBECDBFB2
:10119000DF91CF911F910F910895CF93DF93CDB73A
:1011A000DEB72E970FB6F894DEBF0FBECDBF85E039
:1011B0008C838C899D899A838983AE01485E5F4FB9
:1011C0006E897F89CE010196B8D32E960FB6F8941A
:1011D000DEBF0FBECDBFDF91CF9108952F923F921A
:1011E0004F925F926F927F928F929F92AF92BF9237
:1011F000CF92DF92EF92FF920F931F93CF93DF93E3
:10120000CDB7DEB72B970FB6F894DEBF0FBECDBFBC
:101210006C017B018A01FC0117821682838181FFA8
:10122000BFC1CE0101963C01F6019381F70193FD08
:10123000859193FF81917F01882309F4ADC18532A7
:1012400039F493FD859193FF81917F01853221F4DB
:10125000B60190E0F0D4E8CF912C212C312CFFE1A5
:10126000F315D8F08B3279F038F4803279F083328C
:10127000A1F4232D20611DC08D3261F0803369F40B
:10128000232D216016C0832D8260382EE32DE4606B
:101290003E2E2AC0F32DF8601DC037FC2DC020ED76
:1012A000280F2A3040F08E32B9F436FC75C1232D58
:1012B0002064322E19C036FE06C08AE0989E200DAA
:1012C0001124922E11C0EAE02E9E200D1124222E10
:1012D000F32DF0623F2E08C08C3621F4832D8068F8
:1012E000382E02C0883641F4F70193FD859193FFB3
:1012F00081917F018111B3CF982F9F7D95549330B9
:1013000028F40C5F1F4F9FE399830DC0833631F0A3
:10131000833771F0833509F055C020C0F801808112
:1013200089830E5F1F4F88248394912C530112C030
:101330002801F2E04F0E511CF801A080B18036FE6A
:1013400003C0692D70E002C06FEF7FEFC5012AD4A2
:101350004C018201F32DFF773F2E15C0280122E0BA
:10136000420E511CF801A080B18036FE03C0692DE9
:1013700070E002C06FEF7FEFC50109D44C01F32D7F
:10138000F0683F2E820133FC19C0822D90E0881650
:101390009906A0F4B60180E290E04DD42A94F5CFEE
:1013A000F50137FC859137FE81915F01B60190E030
:1013B00042D421102A9421E0821A910881149104C8
:1013C00079F7E1C0843611F0893639F5F80137FE36
:1013D00007C060817181828193810C5F1F4F08C0BB
:1013E00060817181072E000C880B990B0E5F1F4FD7
:1013F000F32DFF763F2E97FF09C09095809570954D
:1014000061957F4F8F4F9F4FF0683F2E2AE030E06D
:10141000A30166D4882E861844C0853731F4232D65
:101420002F7EB22E2AE030E025C0932D997FB92E71
:101430008F36C1F018F4883579F0AEC0803719F0D6
:10144000883721F0A9C0E92FE061BE2EB4FE0DC09F
:10145000FB2DF460BF2E09C034FE0AC0292F266080
:10146000B22E06C028E030E005C020E130E002C026
:1014700020E132E0F801B7FE07C06081718182810E
:1014800093810C5F1F4F06C06081718180E090E006
:101490000E5F1F4FA30124D4882E8618FB2DFF77E3
:1014A0003F2E36FE0DC0232D2E7FA22E891458F418
:1014B00034FE0BC032FC09C0832D8E7EA82E05C0E1
:1014C000B82CA32C03C0B82C01C0B92CA4FE0FC0AB
:1014D000FE01E80DF11D8081803321F49A2D997E63
:1014E000A92E09C0A2FE06C0B394B39404C08A2DED
:1014F000867809F0B394A3FC10C0A0FE06C0B21415
:1015000080F4280C922C9B180DC0B21458F4B6012C
:1015100080E290E090D3B394F8CFB21418F42B1873
:1015200002C0982C212CA4FE0FC0B60180E390E0ED
:1015300082D3A2FE16C0A1FC03C088E790E002C0DF
:1015400088E590E0B6010CC08A2D867851F0A1FEA6
:1015500002C08BE201C080E2A7FC8DE2B60190E000
:101560006AD3891430F4B60180E390E064D39A948E
:10157000F8CF8A94F301E80DF11D8081B60190E067
:101580005AD38110F6CF222009F44ECEB60180E264
:1015900090E051D32A94F7CFF6018681978102C05B
:1015A0008FEF9FEF2B960FB6F894DEBF0FBECDBF27
:1015B000DF91CF911F910F91FF90EF90DF90CF902F
:1015C000BF90AF909F908F907F906F905F904F9063
:1015D0003F902F90089520FD09C0FC0123FD05C018
:1015E00022FF02C07383628351834083089544FDC8
:1015F00017C046FD17C0AB01BC01DA01FB01AA0F01
:10160000BB1FEE1FFF1F1094D1F74A0F5B1F6E1F09
:101610007F1FCB01BA01660F771F881F991F09C072
:1016200033E001C034E0660F771F881F991F3150E7
:10163000D1F7620F711D811D911D08950F931F93A6
:10164000CF93DF938C01C801B8D2EC0197FD06C09F
:101650008BD2892BC1F7B801CE0129D3CE01DF91FE
:10166000CF911F910F9108958F929F92AF92BF9249
:10167000EF92FF920F931F93CF93DF938C01D62F9E
:101680007A01B22E9AD29C0133272B32310531F0E8
:101690002D32310559F48B2D8068B82ED15011F4BC
:1016A00080E061C0C80189D297FDFACFCB2DCD7FF4
:1016B0002B2D2073F9F48033E9F4AA24AA94AD0EFB
:1016C00009F43EC0C80179D297FD3AC09C012F7D34
:1016D00033272835310541F4C264D25089F1C8015D
:1016E0006CD297FF07C02CC0B6FE02C0C26001C01A
:1016F000C261DA2D812C912C540120ED280F283065
:1017000078F0C4FF03C0B801D2D217C02A3040F02D
:10171000C6FFF9CF2F7D3FEE320F3630A0F72750AE
:101720004C2FC501B40163DF4B015C01C260D15095
:1017300051F0C80142D297FFE0CFC1FD04C0B0CF45
:10174000812C912C5401C7FF08C0B094A0949094B0
:101750008094811C911CA11CB11C2C2FB501A401EB
:10176000C70139DF81E0DF91CF911F910F91FF9089
:10177000EF90BF90AF909F908F9008955F926F927F
:101780007F928F929F92AF92BF92CF92DF92EF9211
:10179000FF920F931F93CF93DF93CDB7DEB7A09740
:1017A0000FB6F894DEBF0FBECDBF5C01962E7A0156
:1017B000F9018E010F5F1F4F680180E2D8011D9271
:1017C0008A95E9F7D50113968C9080E090E0612C22
:1017D000712C30E061E070E083FC259183FE219163
:1017E0008F01522E211103C080E090E090C02E3571
:1017F00011F4009751F1432F50E0481759073CF47A
:101800002D3559F12D3219F4772009F103C07720D5
:1018100009F468C0452D469546954695D601A40F16
:10182000B11D452D47708B0102C0000F111F4A9555
:10183000E2F7A8015C91452B4C93651459F05614BE
:1018400010F45394E7CF5A94E5CF31E004C07724E5
:10185000739401C0712C0196BFCF772019F08E814F
:1018600080628E83311103C08824839417C0F601EF
:101870009E012F5D3F4F8081809581932E173F07FA
:10188000D1F7F2CFE114F10429F0D7018C93F701DD
:1018900031967F019A94812C9920E9F0C5018DD170
:1018A00097FD17C0FC01FF2723E0F595E7952A95E2
:1018B000E1F7EC0DFD1D208130E0AC0147705527AC
:1018C00002C0359527954A95E2F720FDDBCFB5019B
:1018D000EED1811089CFE114F10411F0D7011C92EF
:1018E000C80115C0422F469546954695D601A40FCE
:1018F000B11D422F47708B0102C0000F111F4A9586
:10190000E2F7A8015C91452B4C93622EA4CFA096E0
:101910000FB6F894DEBF0FBECDBFDF91CF911F9100
:101920000F91FF90EF90DF90CF90BF90AF909F907E
:101930008F907F906F905F9008955F926F927F92EB
:101940008F929F92AF92BF92CF92DF92EF92FF92CF
:101950000F931F93CF93DF936C01EB015A01FC01AE
:1019600017821682512CF601E380FE01E3FC85917B
:10197000E3FE8191182FEF01882309F4E0C090E085
:10198000F3D0892B19F0C60159DEEDCF153241F4A1
:10199000FE01E3FC1591E3FE1191EF01153271F4A4
:1019A000C6010BD197FDC9C0412F50E09C013327E0
:1019B00024173507C1F2B6017AD1C1C01A3239F401
:1019C000E3FC1591E3FE1191EF0101E001C000E09D
:1019D000F12C20ED210F2A3078F402606F2D70E099
:1019E00080E090E040E203DEF62EFE01E3FC15917C
:1019F000E3FE1191EF01EDCF01FF03C0F11003C031
:101A00009EC0FF24FA94183619F01C3651F010C00D
:101A1000FE01E3FC1591E3FE1191EF01183641F44C
:101A200008600460FE01E3FC1591E3FE1191EF01F3
:101A3000112309F484C0612F70E084EE90E09CD003
:101A4000892B09F47CC000FD07C0F50180809180DE
:101A5000C50102965C0102C0812C912C1E3649F40E
:101A6000F6014681578160E070E0202FC401B3DDAC
:101A70007ACF1336A1F401FD02C0FF24F394C6010E
:101A80009CD097FD5AC08114910429F0F401808301
:101A9000C40101964C01FA94F110F1CF4AC01B35F4
:101AA00051F49E01A4016F2DC60168DEEC01892B63
:101AB00009F03FC039C0C601C1DD97FD3EC01F36E9
:101AC00049F128F4143621F1193639F125C01337BC
:101AD00071F01537E9F020C08114910429F0F40168
:101AE0006082C40101964C01FA94FF2059F0C601AE
:101AF00064D03C0197FD06C037D0892B69F3B6014D
:101B0000C301D5D081149104A1F0F401108211C059
:101B1000006203C0006101C00064202FA4016F2D8A
:101B2000C601A2DD811105C0F6018381807329F40D
:101B300006C000FD18CF539416CF552019F0852DFF
:101B400090E002C08FEF9FEFDF91CF911F910F9137
:101B5000FF90EF90DF90CF90BF90AF909F908F90CD
:101B60007F906F905F900895911118C1803219F0A5
:101B700089508550D0F70895FC010590061621F094
:101B80000020D9F7C00108953197CF010895FC01D5
:101B90000590615070400110D8F7809590958E0F98
:101BA0009F1F0895FC016150704001900110D8F70B
:101BB000809590958E0F9F1F0895CF93DF93EC0132
:101BC0002B8120FF33C026FF0AC02F7B2B838E8101
:101BD0009F8101969F838E838A8190E029C022FF96
:101BE0000FC0E881F9818081082E000C990B0097C5
:101BF00019F420622B831AC03196F983E8830EC052
:101C0000EA85FB85199597FF09C02B81019611F094
:101C100080E201C080E1822B8B8308C02E813F814E
:101C20002F5F3F4F3F832E83992702C08FEF9FEF97
:101C3000DF91CF9108950F931F93CF93DF93FB0113
:101C4000238121FD03C08FEF9FEF2CC022FF16C020
:101C500046815781248135814217530744F4A0817E
:101C6000B1819D012F5F3F4F318320838C9326816B
:101C700037812F5F3F4F3783268314C08B01EC01E0
:101C8000FB010084F185E02D1995892BE1F6D8013F
:101C900016968D919C911797019617969C938E930B
:101CA0001697CE01DF91CF911F910F910895FB01FF
:101CB000238120FF12C026FD10C08F3F3FEF930706
:101CC00061F082832F7D2064238326813781215018
:101CD000310937832683992708958FEF9FEF089561
:101CE000FA01AA27283051F1203181F1E8946F934D
:101CF0006E7F6E5F7F4F8F4F9F4FAF4FB1E03ED0F3
:101D0000B4E03CD0670F781F891F9A1FA11D680F90
:101D1000791F8A1F911DA11D6A0F711D811D911DC3
:101D2000A11D20D009F468943F912AE0269F112438
:101D30003019305D3193DEF6CF010895462F47709C
:101D4000405D4193B3E00FD0C9F7F6CF462F4F70F7
:101D5000405D4A3318F0495D31FD4052419302D055
:101D6000A9F7EACFB4E0A6959795879577956795FB
:101D7000BA95C9F700976105710508959B01AC01FB
:101D80000A2E06945795479537952795BA95C9F722
:101D9000620F731F841F951FA01D08959927882720
:061DA0000895F894FFCF46
:0E1DA600AC0D0000535400534F00256C640038
:00000001FF
