S0120000544553545F41544D454C2E7372656300
S113000071C0000030C1000069C10000A2C100003D
S1130010DBC1000014C200002AC200003CC2000080
S11300204EC200007FC000007DC000007BC0000005
S113003079C0000077C0000075C0000073C00000E4
S113004071C000006FC000006DC000006BC00000F4
S113005069C0000067C0000065C0000063C0000004
S113006061C000003BC200005DC000005BC0000036
S113007059C0000057C0000055C0000053C0000024
S113008051C000004FC000004DC000004CC0000033
S113009049C0000047C0000045C0000043C0000044
S11300A041C000003FC000003DC000003BC0000054
S11300B039C0000037C0000035C0000033C0000064
S11300C031C000002FC000002DC000002BC0000074
S11300D029C0000027C0000025C0000023C0000084
S11300E021C0000011241FBECFEFD1E2DEBFCDBF7F
S11300F000E00CBF12E0A0E0B2E0E4EEFDE100E0BD
S11301000BBF02C007900D92AA34B107D9F725E0BE
S1130110AAE4B2E001C01D92AC37B207E1F714D2F1
S11301200C94F00E6DCF1F920F920FB60F92112404
S11301302F933F934F935F936F937F938F939F93EB
S1130140AF9320914C0230914D0240914E02509158
S11301504F0260915002709151028091520290912D
S11301605302A1E00E94A10B20934C0230934D0254
S113017040934E0250934F02609350027093510289
S11301808093520290935302AF919F918F917F91EC
S11301906F915F914F913F912F910F900FBE0F90F0
S11301A01F901895FC01408121E030E002C0220F2D
S11301B0331F6A95E2F7242B20830895FC014081C4
S11301C021E030E002C0220F331F6A95E2F7242BAE
S11301D020830895FC01908121E030E002C0220FC9
S11301E0331F6A95E2F72095292320830895F89414
S11301F0E1E9F0E0808181608083E1E7F0E08081E3
S11302008160808378940895F89450914C024091D1
S11302104D0230914E0220914F0280915002809104
S113022051028091520280915302852F942FA32F63
S1130230B22F6091940070919500AB0160E070E082
S11302407894DC0199278827840F951FA61FB71F70
S1130250BC01CD01689413F89695879577956795B9
S11302601694D1F708951F920F920FB60F9211248E
S11302708F939F93AF93BF934E9B14C08091710251
S113028090917202A0917302B09174020196A11D23
S1130290B11D8093710290937202A0937302B09384
S11302A0740213C08091710290917202A091730242
S11302B0B09174020197A109B109809371029093DE
S11302C07202A0937302B0937402BF91AF919F9195
S11302D08F910F900FBE0F901F9018951F920F9241
S11302E00FB60F9211248F939F93AF93BF934F9B9D
S11302F014C08091750290917602A0917702B0911A
S113030078020196A11DB11D809375029093760227
S1130310A0937702B093780213C0809175029091F4
S11303207602A0917702B09178020197A109B109F0
S11303308093750290937602A0937702B09378022B
S1130340BF91AF919F918F910F900FBE0F901F900F
S113035018951F920F920FB60F9211248F939F93AB
S1130360AF93BF931D9B14C08091790290917A0240
S1130370A0917B02B0917C020196A11DB11D8093D6
S1130380790290937A02A0937B02B0937C0213C00B
S11303908091790290917A02A0917B02B0917C02C3
S11303A00197A109B1098093790290937A02A093ED
S11303B07B02B0937C02BF91AF919F918F910F907C
S11303C00FBE0F901F9018951F920F920FB60F92A9
S11303D011248F939F93AF93BF931C9B14C0809160
S11303E07D0290917E02A0917F02B09180020196DD
S11303F0A11DB11D80937D0290937E02A0937F0284
S1130400B093800213C080917D0290917E02A091EE
S11304107F02B09180020197A109B10980937D0206
S113042090937E02A0937F02B0938002BF91AF911C
S11304309F918F910F900FBE0F901F9018951F9250
S11304400F920FB60F9211248F9381E080935E0276
S113045080916002882329F01092000281E0809349
S11304605F028F910F900FBE0F901F9018951F92EF
S11304700F920FB60F9211248F9381E080935D0247
S113048080916002811110925F028F910F900FBED4
S11304900F901F9018951F920F920FB60F92112470
S11304A08F9381E080935D028091600281111092AC
S11304B05F028F910F900FBE0F901F9018951F929F
S11304C00F920FB60F9211248F9381E080935C02F8
S11304D08F910F900FBE0F901F9018951F920F923F
S11304E00FB60F9211240BB60F928F939F93EF9335
S11304F0FF938091C6008A3011F08D3061F4E09151
S11305007002F0E0E15DFB4F108281E080936F02A6
S1130510109270020EC090917002933650F4E091E4
S1130520700291E09E0F90937002F0E0E15DFB4F4A
S11305308083FF91EF919F918F910F900BBE0F904D
S11305400FBE0F901F901895CF93DF93CDB7DEB7F2
S1130550C357D1090FB6F894DEBF0FBECDBF47DE37
S113056044D677D663D60F2EF4EBBF2EF02DBF9270
S11305701F928CEA8F931F92BF9285E08F938824F9
S11305808394982C0F2EF6E0AF2EF02D0F2EF5E06D
S1130590CF2EF02DEE24E394FE2C06E025E042E07D
S11305A051E062E0CE0101963DD283E7FE0131962F
S11305B0A5EEB2E001900D928A95E1F7C12CD12C01
S11305C076019701860140E050E060E87FE385EE24
S11305D092E07DD2BF921F9288EA8F931F928AEA9B
S11305E08F9383E08F936894AA24A2F80F2EF3E0EC
S11305F0CF2EF02DEE24E394FE2C04E023E042E021
S113060051E062E0CE0101960DD283E7FE013196FE
S1130610A9E0B5E001900D928A95E1F7C12CD12CA7
S113062076019701860140E050E060E87FE389E0CD
S113063095E04DD2BF921F921F921F928AE88F932A
S113064086E08F930F2EF4E28F2E912CF02D0F2E37
S1130650F3E0AF2EF02D6894CC24C1F80F2EFAE00D
S1130660EF2EFF24F394F02D03E022E04BE051E061
S113067061E0CE010196D6D183E7FE013196A4E96B
S1130680B4E001900D928A95E1F70F2EF5E9CF2E93
S1130690FFEBDF2EF6E5EF2EF5E3FF2EF02D0DEC4C
S11306A01CEC2CE43DE34AE959E969E97FE384E978
S11306B094E00DD27BD280B3806880BB0FB6F894EF
S11306C0DEBF0FBECDBF8091610281110EC061E01B
S11306D072E08FE294E00E94D60B892B31F481E022
S11306E08093610286E092E0C7D5809161028823FD
S11306F009F491C16CE072E08FE294E00E94D60BA1
S1130700892B29F41092610281E192E0B5D567E169
S113071072E08FE294E00E94D30B909308058093DB
S11307200705009729F0BC0188E593E00E94DF0BE0
S113073069E172E088E593E00E94D60B892B31F4DD
S113074081E080936002109262020AC06CE172E060
S113075088E593E00E94D60B892B11F41092600275
S11307606FE172E088E593E00E94D60B892B31F4A7
S113077081E080936202109260020AC062E272E039
S113078088E593E00E94D60B892B11F41092620243
S113079067E172E080E090E00E94D30B909308053B
S11307A080930705009769F0E1D7092E000CAA0B86
S11307B0BB0B80936B0290936C02A0936D02B09379
S11307C06E0267E172E080E090E0EDD79093080557
S11307D080930705009769F0C9D7092E000CAA0B6E
S11307E0BB0B8093670290936802A0936902B09355
S11307F06A0267E172E080E090E0D5D79093080543
S113080080930705009769F0B1D7092E000CAA0B55
S1130810BB0B8093630290936402A0936502B09330
S1130820660280916002882309F469C060E585EE60
S113083092E0D8D460E589E095E0D4D480910002B8
S11308408823D9F085E292E017D500917D021091BA
S11308507E0220917F0230918002C0905802D09095
S11308605902E0905A02F0905B0240EE51EB6FEFB8
S11308707FEF85EE92E029D40BC085EE92E00DD295
S113088010927D0210927E0210927F0210928002DA
S113089080915F028823D9F08EE292E0EDD400913A
S11308A0790210917A0220917B0230917C02C090EF
S11308B05402D0905502E0905602F090570240EE58
S11308C051EB6FEF7FEF89E095E0FFD30BC089E038
S11308D095E0E3D11092790210927A0210927B0291
S11308E010927C0280910002811109C080915F0204
S11308F0811105C01092600287E392E0BDD480911B
S11309006202882309F476C0649B1EC010925E02C2
S113091000917D0210917E0220917F02309180022D
S1130920C0905802D0905902E0905A02F0905B02B5
S113093040916B0250916C0260916D0270916E0255
S113094085EE92E0C2D303C085EE92E0A6D1659B0A
S113095020C0669B1EC010925D0200917902109126
S11309607A0220917B0230917C02C0905402D09094
S11309705502E0905602F090570240916702509160
S113098068026091690270916A0289E095E09DD3E2
S113099003C089E095E081D100917502109176023F
S11309A02091770230917802409163025091640261
S11309B06091650270916602C12CD12C760184E9A4
S11309C094E083D3E5EEF2E0868D8F93858D8F934B
S11309D08DE392E09F938F9381E892E09F938F93AE
S11309E024D781E892E048D40F900F900F900F9095
S11309F00F900F908091620281110DC0809160026E
S1130A00811109C085EE92E048D189E095E045D195
S1130A1084E994E042D18FE39CE90197F1F700C0A7
S1130A20000051CE6F927F928F929F92AF92CF929D
S1130A30DF92EF92FF920F931F93CF93DF93CDB783
S1130A40DEB73C01162F6C2DD9888E89F3011083F3
S1130A505683458327830087F282E182C382A4827E
S1130A6092868186D3862A893B89308F278B2C896D
S1130A703D89328F218F848790E0968F858F82E322
S1130A808587C7018FDB6A2DC7018CDB113049F4E0
S1130A908CE090E0F301948F838F6D2DC40182DB91
S1130AA007C0123029F48CEB92E0F301948F838F0A
S1130AB0C301DF91CF911F910F91FF90EF90DF90D1
S1130AC0CF90AF909F908F907F906F900895CF922A
S1130AD0DF92EF92FF920F931F93CF93DF93EC017A
S1130AE0FC01E959FF4F4083518362837383349639
S1130AF000831183228333833496C082D182E282BD
S1130B00F3821F8E18A219A21AA21BA61CA61DA648
S1130B101EA66B8D7C8D660F771F8C01015A1F4FAB
S1130B2080E090E0B7D4F80160837183828393837B
S1130B301BAA1CAA1DAA1EAA1FAA18AE19AE1AAE79
S1130B401BAE1CAE1DAE1EAEB0971FAE118212823C
S1130B5013821482158216821782389610821182AB
S1130B60128213821482158216821782389610829A
S1130B7011821282138214821582168217821FA296
S1130B8018A619A61AA6C95ADF4F188219821A8202
S1130B901B821C821D821E821F82DF91CF911F91B6
S1130BA00F91FF90EF90DF90CF90089584B5836804
S1130BB084BD85B5896085BDE0E8F0E0808181620F
S1130BC08083E1E8F0E0808189608083E0EBF0E0FD
S1130BD0808181628083E1EBF0E0808181608083A9
S1130BE0E0EAF0E08081896A8083E1EAF0E08081D4
S1130BF0816080830895CF93DF93FC0181E0818B32
S1130C00128A8081813051F4EF0167818581968158
S1130C10D5DA68858D819E81DDDA13C0823089F44E
S1130C20A789B08D858D968D99231CF49195819516
S1130C30910911969C938E93018CF28DE02D118273
S1130C401082DF91CF910895CF93DF93FC01118A35
S1130C5081E0828B8081813051F4EF01678185814D
S1130C609681B8DA68858D819E81A8DA13C08230B6
S1130C7089F4A789B08D11961C921E92A18DB28D14
S1130C80858D968D99231CF49195819591091196E2
S1130C909C938E93DF91CF910895CF93DF93FC01C2
S1130CA0118A128A8081813051F4EF016781858134
S1130CB0968190DA68858D819E818CDA0CC08230B1
S1130CC051F4A789B08D11961C921E92018CF28D5D
S1130CD0E02D11821082DF91CF9108952F923F92DF
S1130CE04F925F926F927F928F929F92AF92BF9238
S1130CF0CF92DF92EF92FF920F931F93CF93DF93E4
S1130D00CDB7DEB762970FB6F894DEBF0FBECDBF86
S1130D109A8B898B79DA7B018C0120E030E0A90180
S1130D206983FA820B831C832D833E834F83588708
S1130D30E989FA89FF96A989BA89DF966C93DF97C6
S1130D40F1820283138314821582168217821D0195
S1130D50BFE42B0E311CF101A080B180C280D3808E
S1130D60E480F5800681178129813A814B815C8179
S1130D7060E070E080E090E0F0D4622E732E042FE7
S1130D80152F862E972EA82EB92EE989FA89E95BAC
S1130D90FF4F208331834283538364837583868327
S1130DA09783E989FA8983A594A5A5A5B6A5C3A0C7
S1130DB0D4A0E5A0F6A0BC01CD016C197D098E0973
S1130DC09F096AD36B017C01A989BA89D3966D9373
S1130DD07D938D939C93D6975F966D917D918D9124
S1130DE09C91929759D39B01AC01C701B60150D293
S1130DF06D877E878F87988B262D372D402F512F17
S1130E00682D792D8A2D9B2D82D369877A878B87CC
S1130E109C879B01AC016D857E858F859889A1D2C5
S1130E204B015C01E989FA8967AB70AF81AF92AF7E
S1130E3043AC54AC65AC76AC29853A854B855C856E
S1130E40C701B6011BD49B01AC01C301B20121D27D
S1130E502B013C01A989BA89DB966D937D938D930F
S1130E609C93DE97FD01E959FF4F20813181428136
S1130E705381C701B60102D469877A878B879C871F
S1130E80E989FA89E559FF4F2081318142815381F3
S1130E90C501B401F3D39B01AC0169857A858B85C7
S1130EA09C85F7D14B015C01E989FA89E159FF4F2F
S1130EB02081318142815381C301B201DFD39B017F
S1130EC0AC01C501B401E5D14B015C01E989FA89A2
S1130ED0ED59FF4F6083718382839383C701B60109
S1130EE0A8D2E989FA89678F70A381A392A3E981C3
S1130EF0D101EC93FA811196FC931197EB80129631
S1130F00EC921297FC801396FC92139714961C9201
S1130F10149715961C92159716961C921697179669
S1130F201C92A989BA891C96DC900D2D10E0B80199
S1130F30012E000C880B990BAFD29B01AC01C501AB
S1130F40B40198D318167CF4E988FA88B3E6EB0E5A
S1130F50F11C6D2D70E080E090E09CD2F70160837D
S1130F60718382839383E989FA89ED59FF4FC080A5
S1130F70D180E280F38066277727601B710B072EF0
S1130F80000C880B990B88D24B015C019B01AC01CE
S1130F90C701B601E2D1882354F409891A890D598D
S1130FA01F4FD8018D929D92AD92BC921397629679
S1130FB00FB6F894DEBF0FBECDBFDF91CF911F9166
S1130FC00F91FF90EF90DF90CF90BF90AF909F90E4
S1130FD08F907F906F905F904F903F902F900895E7
S1130FE0AF92BF92CF92DF92EF92FF920F931F9333
S1130FF0CF93DF938C01FC01ED59FF4FC080D1806A
S1131000E280F380FC01C58DD68D5E01F2E0AF0E67
S1131010B11CB5010B2C000C880B990B3DD29B0124
S1131020AC01C701B60126D3181624F4F801B68E14
S1131030A58E18C02297BE010D2E000C880B990BAB
S11310402BD29B01AC01C701B60187D1882324F4BC
S1131050F801D68FC58F06C0C701B601EAD1F801E1
S1131060768F658FDF91CF911F910F91FF90EF9055
S1131070DF90CF90BF90AF900895CF93DF93EC01B2
S11310806B897C898D899E8920E030E040EA50E4B8
S1131090F1D218165CF48989882319F081E08F87CE
S11310A005C08A89882311F081E0888B8A89882386
S11310B019F08F8581111F868989882319F0888901
S11310C08111188ADF91CF910895AF92BF92CF9288
S11310D0DF92EF92FF920F931F93CF93DF93CDB7DD
S11310E0DEB728970FB6F894DEBF0FBECDBF5C0104
S11310F049835A836B837C830D831E832F833887B4
S11311008D819E81AF81B885F50183A394A3A5A3A6
S1131110B6A389819A81AB81BC8183A794A7A5A733
S1131120B6A7C38AD48AE58AF68AC501D7DDC50184
S113113057DFC501A2DFF501858D968D18161906B6
S11311401CF42785211107C0992344F4D501509636
S11311502C91222319F0C501A0DD33C0F5012081B3
S1131160213029F40788F08DE02D91838083F501E7
S1131170ED59FF4FC080D180E280F38020E030E061
S113118040E251E4C701B60175D218161CF4C5013A
S113119032DD0EC020E030E040E251ECC701B60180
S11311A0DCD088231CF4C5014FDD02C0C50175DD08
S11311B0F50183A594A5A5A5B6A587A790ABA1AB7A
S11311C0B2AB28960FB6F894DEBF0FBECDBFDF9149
S11311D0CF911F910F91FF90EF90DF90CF90BF9030
S11311E0AF900895FC0164870895F8948AB18073E0
S11311F08AB98DB18F708DB984B18F7C84B98BB16C
S113120080738BB985B18F7C85B98EB1806F8EB9AF
S1131210E9E6F0E080819FEF9083EAE6F0E08081E8
S1131220856580838DB39DBB78940895EAE7F0E0EB
S1131230808187688083ECE7F0E08081806480832C
S113124080818F778083EBE7F0E08081877F8083E4
S113125008951092C50087E68093C40088E98093BE
S1131260C10086E08093C20008959091C00095FF6C
S1131270FCCF8093C6000895CF93DF93EC0102C0A6
S11312802196F3DF88818111FBCFDF91CF910895FF
S11312905058BB27AA270ED0B3C1A4D130F0A9D18E
S11312A020F031F49F3F11F41EF499C10EF4E0953F
S11312B0E7FB8FC1E92FB5D180F3BA176207730733
S11312C08407950718F071F49EF5CDC10EF4E095EE
S11312D00B2EBA2FA02D0B01B90190010C01CA01EC
S11312E0A0011124FF27591B99F0593F50F4503E97
S11312F068F11A16F040A22F232F342F4427585F89
S1131300F3CF469537952795A795F0405395C9F7A0
S11313107EF41F16BA0B620B730B840BBAF0915058
S1131320A1F0FF0FBB1F661F771F881FC2F70EC0F7
S1131330BA0F621F731F841F48F4879577956795CA
S1131340B795F7959E3F08F0B3CF9395880F08F0B3
S11313509927EE0F97958795089517D108F481E0A2
S113136008950CD04DC145D140F03CD130F021F46A
S11313705F3F19F02EC1511177C131C152D198F399
S11313809923C9F35523B1F3951B550BBB27AA2702
S113139062177307840738F09F5F5F4F220F331F74
S11313A0441FAA1FA9F333D00E2E3AF0E0E830D040
S11313B091505040E695001CCAF729D0FE2F27D043
S11313C0660F771F881FBB1F261737074807AB0711
S11313D0B0E809F0BB0B802DBF01FF2793585F4F86
S11313E02AF09E3F510568F0F4C03EC15F3FECF324
S11313F0983EDCF3869577956795B795F7959F5F4B
S1131400C9F7880F911D9695879597F90895E1E09E
S1131410660F771F881FBB1F621773078407BA07FD
S113142020F0621B730B840BBA0BEE1F88F7E09558
S1131430089504D06894B11117C10895FAD088F0C2
S11314409F5790F0B92F9927B751A0F0D1F0660FAC
S1131450771F881F991F1AF0BA95C9F712C0B130C7
S113146081F001D1B1E00895FEC0672F782F88275D
S1131470B85F39F0B93FCCF3869577956795B39506
S1131480D9F73EF490958095709561957F4F8F4F75
S11314909F4F0895E89409C097FB3EF4909580957A
S11314A0709561957F4F8F4F9F4F9923A9F0F92F26
S11314B096E9BB279395F695879577956795B795A4
S11314C0F111F8CFFAF4BB0F11F460FF1BC06F5F8A
S11314D07F4F8F4F9F4F16C0882311F096E911C09C
S11314E0772321F09EE8872F762F05C0662371F0BD
S11314F096E8862F70E060E02AF09A95660F771FD1
S1131500881FDAF7880F9695879597F90895E894D8
S1131510F92F96EBFF2381F0121613061406440BE1
S11315209395F69587957795679557954040FF2352
S1131530B9F71BC099270895882351F49850D2F71E
S1131540872B762F652F542F432F322F20E0B1F3B2
S1131550121613061406440B88233AF09A95440F86
S1131560551F661F771F881FCAF755234AF4440F77
S1131570551F11F460FF04C06F5F7F4F8F4F9F4F63
S1131580880F9695879597F90895990F0008550F38
S1131590AA0BE0E8FEEF16161706E807F907C0F0F5
S11315A012161306E407F50798F0621B730B840BFD
S11315B0950B39F40A2661F0232B242B252B21F4D7
S11315C008950A2609F4A140A6958FEF811D811D77
S11315D0089597F99F6780E870E060E008959FEFB1
S11315E080EC089500240A941616170618060906B6
S11315F0089500240A941216130614060506089585
S1131600092E0394000C11F4882352F0BB0F40F40C
S1131610BF2B11F460FF04C06F5F7F4F8F4F9F4F4C
S1131620089557FD9058440F551F59F05F3F71F0CE
S11316304795880F97FB991F61F09F3F79F0879535
S11316400895121613061406551FF2CF4695F1DFBE
S113165008C0161617061806991FF1CF869571054E
S1131660610508940895E894BB2766277727CB0182
S113167097F908958ADF08F48FEF08950BD0C0CF4F
S1131680B1DF28F0B6DF18F0952309F0A2CFA7CF79
S11316901124EACFC6DFA0F3959FD1F3950F50E054
S11316A0551F629FF001729FBB27F00DB11D639F10
S11316B0AA27F00DB11DAA1F649F6627B00DA11DB6
S11316C0661F829F2227B00DA11D621F739FB00D5C
S11316D0A11D621F839FA00D611D221F749F3327CC
S11316E0A00D611D231F849F600D211D822F762F65
S11316F06A2F11249F5750408AF0E1F088234AF062
S1131700EE0FFF1FBB1F661F771F881F91505040AD
S1131710A9F79E3F510570F05CCFA6CF5F3FECF375
S1131720983EDCF3869577956795B795F795E79599
S11317309F5FC1F7FE2B880F911D9695879597F9AA
S113174008950024A7FD00942A0F301D401D501D4C
S1131750601D701D801D901D08952A193B094C09B8
S11317605D096E097F09800B910B0895FC018827A0
S11317709927E89421912032E9F3293010F02E3092
S1131780C8F32B3239F02D3231F4689403C045D0BC
S1131790820F911D219120532A30C8F31EF4909595
S11317A081959F4F08954AE452E010C0FB01DC018B
S11317B08D91019080190110D9F3990B0895FB01C3
S11317C0DC0101900D920020E1F70895FA01A19146
S11317D0B081009719F41097E1F0CD01DC01CD013F
S11317E00D90002011F4C00113C0FB0121912223AC
S11317F019F02015D9F7F3CFFB012191201519F425
S11318001E92119606C02223C1F70D900020A1F765
S1131810D001FA01A193B08308957AE0979F902DA7
S1131820879F802D910D112408950F931F93CF93BB
S1131830DF93CDB7DEB72E970FB6F894DEBF0FBE99
S1131840CDBF0E891F8986E08C831A8309838FEFAD
S11318509FE79E838D83AE01465E5F4F688D798DD1
S1131860CE01019610D0EF81F885E00FF11F1082B0
S11318702E960FB6F894DEBF0FBECDBFDF91CF9189
S11318801F910F9108952F923F924F925F926F9202
S11318907F928F929F92AF92BF92CF92DF92EF92FC
S11318A0FF920F931F93CF93DF93CDB7DEB72B97A0
S11318B00FB6F894DEBF0FBECDBF6C017B018A0169
S11318C0FC0117821682838181FFBFC1CE0101967C
S11318D03C01F6019381F70193FD859193FF81917A
S11318E07F01882309F4ADC1853239F493FD8591D4
S11318F093FF81917F01853221F4B60190E0D6D126
S1131900E8CF912C212C312CFFE1F315D8F08B3248
S113191079F038F4803279F08332A1F4232D2061F8
S11319201DC08D3261F0803369F4232D216016C00F
S1131930832D8260382EE32DE4603E2E2AC0F32DE1
S1131940F8601DC037FC2DC020ED280F2A3040F070
S11319508E32B9F436FC75C1232D2064322E19C0A1
S113196036FE06C08AE0989E200D1124922E11C0E6
S1131970EAE02E9E200D1124222EF32DF0623F2E3C
S113198008C08C3621F4832D8068382E02C0883636
S113199041F4F70193FD859193FF81917F018111BA
S11319A0B3CF982F9F7D9554933028F40C5F1F4F2D
S11319B09FE399830DC0833631F0833771F083350B
S11319C009F055C020C0F801808189830E5F1F4F44
S11319D088248394912C530112C02801F2E04F0E05
S11319E0511CF801A080B18036FE03C0692D70E05F
S11319F002C06FEF7FEFC5014ED14C018201F32D80
S1131A00FF773F2E15C0280122E0420E511CF80139
S1131A10A080B18036FE03C0692D70E002C06FEF74
S1131A207FEFC5012DD14C01F32DF0683F2E8201CB
S1131A3033FC19C0822D90E088169906A0F4B601F3
S1131A4080E290E033D12A94F5CFF50137FC8591FB
S1131A5037FE81915F01B60190E028D121102A94CC
S1131A6021E0821A91088114910479F7E1C0843647
S1131A7011F0893639F5F80137FE07C060817181AC
S1131A80828193810C5F1F4F08C060817181072E92
S1131A90000C880B990B0E5F1F4FF32DFF763F2E22
S1131AA097FF09C090958095709561957F4F8F4FF2
S1131AB09F4FF0683F2E2AE030E0A30133D1882EF7
S1131AC0861844C0853731F4232D2F7EB22E2AE0A8
S1131AD030E025C0932D997FB92E8F36C1F018F4CC
S1131AE0883579F0AEC0803719F0883721F0A9C065
S1131AF0E92FE061BE2EB4FE0DC0FB2DF460BF2EB5
S1131B0009C034FE0AC0292F2660B22E06C028E080
S1131B1030E005C020E130E002C020E132E0F8010D
S1131B20B7FE07C060817181828193810C5F1F4F72
S1131B3006C06081718180E090E00E5F1F4FA301B9
S1131B40F1D0882E8618FB2DFF773F2E36FE0DC070
S1131B50232D2E7FA22E891458F434FE0BC032FCA0
S1131B6009C0832D8E7EA82E05C0B82CA32C03C0DB
S1131B70B82C01C0B92CA4FE0FC0FE01E80DF11D64
S1131B808081803321F49A2D997EA92E09C0A2FE6A
S1131B9006C0B394B39404C08A2D867809F0B39434
S1131BA0A3FC10C0A0FE06C0B21480F4280C922C32
S1131BB09B180DC0B21458F4B60180E290E076D0C0
S1131BC0B394F8CFB21418F42B1802C0982C212C1B
S1131BD0A4FE0FC0B60180E390E068D0A2FE16C058
S1131BE0A1FC03C088E790E002C088E590E0B6015C
S1131BF00CC08A2D867851F0A1FE02C08BE201C090
S1131C0080E2A7FC8DE2B60190E050D0891430F454
S1131C10B60180E390E04AD09A94F8CF8A94F30115
S1131C20E80DF11D8081B60190E040D08110F6CF1F
S1131C30222009F44ECEB60180E290E037D02A94F7
S1131C40F7CFF6018681978102C08FEF9FEF2B9625
S1131C500FB6F894DEBF0FBECDBFDF91CF911F91B9
S1131C600F91FF90EF90DF90CF90BF90AF909F9037
S1131C708F907F906F905F904F903F902F9008953A
S1131C80FC010590615070400110D8F78095909543
S1131C908E0F9F1F0895FC01615070400190011048
S1131CA0D8F7809590958E0F9F1F08950F931F93DB
S1131CB0CF93DF93FB01238121FD03C08FEF9FEFBF
S1131CC02CC022FF16C046815781248135814217DA
S1131CD0530744F4A081B1819D012F5F3F4F3183AD
S1131CE020838C93268137812F5F3F4F3783268350
S1131CF014C08B01EC01FB010084F185E02D1995E2
S1131D00892BE1F6D80116968D919C91179701962F
S1131D1017969C938E931697CE01DF91CF911F91C6
S1131D200F910895FA01AA27283051F1203181F149
S1131D30E8946F936E7F6E5F7F4F8F4F9F4FAF4FCF
S1131D40B1E03ED0B4E03CD0670F781F891F9A1FE2
S1131D50A11D680F791F8A1F911DA11D6A0F711D96
S1131D60811D911DA11D20D009F468943F912AE0A2
S1131D70269F11243019305D3193DEF6CF0108958A
S1131D80462F4770405D4193B3E00FD0C9F7F6CFBB
S1131D90462F4F70405D4A3318F0495D31FD405283
S1131DA0419302D0A9F7EACFB4E0A6959795879519
S1131DB077956795BA95C9F70097610571050895F8
S1131DC09B01AC010A2E06945795479537952795A4
S1131DD0BA95C9F7620F731F841F951FA01D08953C
S1071DE0F894FFCFA1
S1131DE401636F6E6E0061636B630A0064697363FD
S1131DF40061636B640A002F00484D00485300538C
S1131E045400534F00686F6D696E68310A00686F3F
S1131E146D696E68320A0061636B680A0025642088
S10D1E246D6F746F7220310A000024
S9030000FC
