:1000000071C0000030C1000051C1000072C1000089
:1000100093C10000B4C10000CAC10000DCC10000EF
:10002000EEC100007FC000007DC000007BC000006A
:1000300079C0000077C0000075C0000073C00000E8
:1000400071C000006FC000006DC000006BC00000F8
:1000500069C0000067C0000065C0000063C0000008
:1000600061C00000DBC100005DC000005BC000009B
:1000700059C0000057C0000055C0000053C0000028
:1000800051C000004FC000004DC000004CC0000037
:1000900049C0000047C0000045C0000043C0000048
:1000A00041C000003FC000003DC000003BC0000058
:1000B00039C0000037C0000035C0000033C0000068
:1000C00031C000002FC000002DC000002BC0000078
:1000D00029C0000027C0000025C0000023C0000088
:1000E00021C0000011241FBECFEFD1E2DEBFCDBF83
:1000F00000E00CBF12E0A0E0B2E0EEEAF3E100E0C5
:100100000BBF02C007900D92A431B107D9F724E0CC
:10011000A4E1B2E001C01D92AE36B207E1F7D4D13E
:100120000C94D5096DCF1F920F920FB60F92112428
:100130002F933F934F935F936F937F938F939F93EF
:10014000AF93209114023091150240911602509104
:100150001702609118027091190280911A02909111
:100160001B02A1E00E94C9092093140230931502DA
:10017000409316025093170260931802709319026D
:1001800080931A0290931B02AF919F918F917F9160
:100190006F915F914F913F912F910F900FBE0F90F4
:1001A0001F901895FC01408121E030E002C0220F31
:1001B000331F6A95E2F7242B20830895FC014081C8
:1001C00021E030E002C0220F331F6A95E2F7242BB2
:1001D00020830895FC01908121E030E002C0220FCD
:1001E000331F6A95E2F72095292320830895F89418
:1001F000E1E9F0E0808181608083E1E7F0E08081E7
:100200008160808378940895F8945091140240910D
:1002100015023091160220911702809118028091E8
:10022000190280911A0280911B02852F942FA32F0F
:10023000B22F6091940070919500AB0160E070E086
:100240007894DC0199278827840F951FA61FB71F74
:10025000BC01CD01689413F89695879577956795BD
:100260001694D1F708951F920F920FB60F92112492
:100270008F939F934E9B0AC080912D0290912E02E6
:10028000019690932E0280932D0209C080912D0239
:1002900090912E02019790932E0280932D029F91B0
:1002A0008F910F900FBE0F901F9018951F920F9275
:1002B0000FB60F9211248F939F934F9B0AC080918A
:1002C0002F029091300201969093300280932F027A
:1002D00009C080912F0290913002019790933002D3
:1002E00080932F029F918F910F900FBE0F901F90C0
:1002F00018951F920F920FB60F9211248F939F9310
:100300001D9B0AC080913102909132020196909318
:1003100032028093310209C0809131029091320201
:10032000019790933202809331029F918F910F90A9
:100330000FBE0F901F9018951F920F920FB60F923D
:1003400011248F939F931C9B0AC08091330290913C
:1003500034020196909334028093330209C0809155
:1003600033029091340201979093340280933302C8
:100370009F918F910F900FBE0F901F9018951F9215
:100380000F920FB60F9211248F9381E08093260273
:1003900080912802882329F01092000281E0809346
:1003A00027028F910F900FBE0F901F9018951F92EC
:1003B0000F920FB60F9211248F9381E08093250244
:1003C000809128028111109227028F910F900FBE09
:1003D0000F901F9018951F920F920FB60F92112435
:1003E0008F9381E0809325028091280281111092E1
:1003F00027028F910F900FBE0F901F9018951F929C
:100400000F920FB60F9211248F9381E080932402F4
:100410008F910F900FBE0F901F9018951F920F9203
:100420000FB60F9211240BB60F928F939F93EF93F9
:10043000FF938091C60090912C0291110DC08A3AD1
:10044000F1F4E0912C0291E09E0F90932C02F0E0E9
:10045000E65AFC4F808313C0E0912C0291E09E0F7E
:1004600090932C02F0E0E65AFC4F808380912C029E
:100470008B3029F410922C0281E080932B02FF91A3
:10048000EF919F918F910F900BBE0F900FBE0F9029
:100490001F901895AC0190E080E006C0FA01E90FCA
:1004A000F11D208182279F5F9617C0F30895CF9397
:1004B000DF93EC016AE0EEDF2A8591E0821390E0A1
:1004C000892FDF91CF910895CF93DF93CDB7DEB71A
:1004D000CD55D1090FB6F894DEBF0FBECDBF87DE74
:1004E000DED411D5FDD40F2EFCE3BF2EF02DBF922C
:1004F0001F928CEA8F931F9284EB8F9385E08F93EA
:1005000088248394982C0F2EF6E0AF2EF02D0F2E1A
:10051000F5E0CF2EF02DEE24E394FE2C06E025E04E
:1005200042E051E062E0CE010C969FD182E5FE01EF
:100530003C96A4EAB2E001900D928A95E1F7C12CB5
:10054000D12C760106EA1BE924EC3BE340E050E0C5
:1005500060E87FE384EA92E0DDD1BF921F9288EAEF
:100560008F931F928AEA8F9383E08F936894AA24D3
:10057000A2F80F2EF3E0CF2EF02DEE24E394FE2C04
:1005800004E023E042E051E062E0CE010C966DD140
:1005900082E5FE013C96A8EBB3E001900D928A95AE
:1005A000E1F7C12CD12C760106EA1BE924EC3BE3F0
:1005B00040E050E060E87FE388EB93E0ABD184E675
:1005C0008F931F921F921F928AE88F9386E08F93DA
:1005D0000F2EF4E28F2E912CF02D0F2EF3E0AF2E84
:1005E000F02D6894CC24C1F80F2EFAE0EF2EFF24F2
:1005F000F394F02D03E022E04BE051E061E0CE0106
:100600000C9633D182E5FE013C96A6E6B3E001905C
:100610000D928A95E1F7C12CD12C76010DEC1CECE2
:100620002CE43DE34AE959E969E97FE386E693E092
:1006300071D1E2D1E7E0F1E0808181608083E8E080
:10064000F1E080818E7F80830FB6F894DEBF0FBE0D
:10065000CDBF2FB7F89481E019C0809133029091FB
:1006600034029093C5028093C4028091310290912C
:1006700032029093D9038093D80380912F029091F6
:100680003002909387038093860380E08111E5CF49
:100690002FBF80912B028823D9F0F89410922B025F
:1006A0008BE0EAE5F3E0DE01119601900D928A9568
:1006B000E1F77894CE010196FADE882349F08BE0C9
:1006C000FE013196A9E9B2E001900D928A95E1F719
:1006D00080912902811109C080919A02813029F408
:1006E0008093290281E092E02DD480912902882311
:1006F00009F4B4C080919A02823029F41092290240
:1007000087E092E01FD480919A02853031F491E025
:100710009093280210922A0204C0843011F410929F
:100720002802833031F481E080932A02109228025B
:1007300004C0843011F410922A0280912802882388
:1007400009F450C06CE384EA92E0A6D36CE388EB32
:1007500093E0A2D380910002882371F020912002BF
:1007600030912102409122025091230260EE71EB00
:1007700084EA92E0CDD203C084EA92E01CD188E3FF
:100780009FEF909334028093330280912702882355
:1007900071F020911C0230911D0240911E02509177
:1007A0001F0260EE71EB88EB93E0B2D203C088EBDE
:1007B00093E001D18CEA9EEF909332028093310254
:1007C0008091000281110EC08091270281110AC020
:1007D000109228028DE092E0B5D381E08093000270
:1007E0001092270280912A02882339F12091200259
:1007F00030912102409122025091230209E912E036
:10080000F8016281738184EA92E082D220911C0215
:1008100030911D0240911E0250911F02F801648127
:10082000758188EB93E074D2F8016681778120E0CE
:1008300030E0A90186E693E06BD280912A02811113
:100840000DC080912802811109C084EA92E0B3D0E2
:1008500088EB93E0B0D086E693E0ADD08FE39CE9DF
:100860000197F1F700C00000F4CE6F927F928F9253
:100870009F92AF92CF92DF92EF92FF920F931F93CE
:10088000CF93DF93CDB7DEB73C01162F6C2DD988FF
:100890008E89F30110835683458327830087F28274
:1008A000E182C382A48292868186D3862A893B898B
:1008B000338B228B2C893D89358B248B848790E068
:1008C000918F808F82E38587C7016CDC6A2DC70119
:1008D00069DC113049F48CE090E0F301978B868B52
:1008E0006D2DC4015FDC07C0123029F480E398E06D
:1008F000F301978B868BC301DF91CF911F910F91ED
:10090000FF90EF90DF90CF90AF909F908F907F906F
:100910006F900895CF92DF92EF92FF920F931F9303
:10092000CF93DF93EC014AAF5BAF6CAF7DAFFC01BF
:10093000FE9600831183228333833496C082D18252
:10094000E282F3821F8E1E8E1DA21CA26E897F89F9
:10095000660F771F80E090E003D46AAB7BAB8CAB73
:100960009DAB1EA21FA218A619A61AA61BA61CA6FE
:100970001DA61EA61FA618AA19AAFE01EA5BFF4F14
:100980001082118212821382349610821182128296
:100990001382349610821182128213821BA21AA231
:1009A00019A218A2DF91CF911F910F91FF90EF90A4
:1009B000DF90CF900895CF93DF93FC01108A118AC6
:1009C0008081813051F4EF0167818581968102DC5D
:1009D00068858D819E81FEDB0CC0823051F4A28936
:1009E000B38911961C921E920488F589E02D11821C
:1009F0001082DF91CF91089584B5836884BD85B559
:100A0000896085BDE0E8F0E0808181628083E1E873
:100A1000F0E0808189608083E0EBF0E08081836298
:100A20008083E1EBF0E0808181608083E0EAF0E0A8
:100A30008081896A8083E1EAF0E080818960808337
:100A400008954F925F926F927F928F929F92AF9292
:100A5000BF92CF92DF92EF92FF920F931F93CF93AB
:100A6000DF93CDB7DEB72A970FB6F894DEBF0FBE7F
:100A7000CDBF9A878987C8DB2B013C01E985FA85C0
:100A8000EA5BFF4F6083718382839383E985FA85F4
:100A9000E25BFF4F80819181A281B381A30192012A
:100AA000281B390B4A0B5B0BE985FA85E65BFF4F88
:100AB0002083318342835383232B242B252B61F402
:100AC00081E090E0A0E0B0E0E985FA85E65BFF4FC9
:100AD00080839183A283B383A985BA8594960D916F
:100AE0001C91959790968D919C919197081B190B4D
:100AF000B801012E000C880B990B34D36B017C01DB
:100B0000E985FA8566A377A380A791A7668D778D7F
:100B1000072E000C880B990B25D39B01AC01C70154
:100B2000B6011CD24B015C01E985FA85E65BFF4FFB
:100B3000608171818281938113D369837A838B83EE
:100B40009C839B01AC01C501B40171D26D837E838E
:100B50008F839887A985BA859A966D937D938D9397
:100B60009C939D979E968D909D90AD90BC90D197B3
:100B700029813A814B815C81C701B601A7D39B01D2
:100B8000AC01C501B401EBD14B015C01E985FA85EB
:100B900066A777A780AB91AB22AD33AD44AD55AD21
:100BA000C701B60193D36B017C01E985FA85FE96F6
:100BB00020813181428153816D817E818F81988531
:100BC00085D39B01AC01C701B601C9D16B017C0182
:100BD000E985FA85EE5BFF4F2081318142815381A7
:100BE000C501B40173D39B01AC01C701B601B7D1F4
:100BF0004B015C01A985BA85D6966D937D938D9343
:100C00009C93D9975F961C930E935E97FD01E25BD0
:100C1000FF4F40825182628273821C96FC900F2D9E
:100C200010E0B801012E000C880B990B9BD29B01A0
:100C3000AC01C501B40146D318165CF46F2D70E009
:100C400080E090E08DD2E985FA8566AB77AB80AF26
:100C500091AFA985BA85D696CD90DD90ED90FC90A8
:100C6000D99766277727601B710B072E000C880B1E
:100C7000990B78D24B015C019B01AC01C701B60115
:100C8000D2D1882334F4E985FA8586AA97AAA0AE42
:100C9000B1AE2A960FB6F894DEBF0FBECDBFDF917E
:100CA000CF911F910F91FF90EF90DF90CF90BF9069
:100CB000AF909F908F907F906F905F904F9008952E
:100CC000CF93DF93EC016A8D7B8D8C8D9D8D20E021
:100CD00030E040EA50E4F6D218165CF488898823A4
:100CE00019F081E08E8705C08989882311F081E0A1
:100CF0008F878989882319F08E8581111E868889BE
:100D0000882319F08F8581111F86DF91CF91089577
:100D1000CF92DF92EF92FF92CF93DF93EC017DA30E
:100D20006CA32A8F3B8F4C8F5D8F8BDE6EA97FA9C2
:100D300088AD99ADE4D1798F688FCE01C1DF888D00
:100D4000998D181619061CF42E85211105C09923BA
:100D5000ECF42F852223D1F0188A198A88818130FA
:100D600049F46F818D819E8135DA68858D819E8100
:100D700031DA8BC0823009F088C0EA89FB891182A0
:100D80001082EC89FD89118210827FC02881213078
:100D900059F4EA89FB899C01992324F422273327FB
:100DA000281B390B31832083CEA8DFA8E8ACF9AC2F
:100DB00020E030E040E252E4C701B60183D21816C9
:100DC00014F581E0888B198A8881813049F46F811C
:100DD0008D819E81F3D968858D819E81FBD955C017
:100DE000823009F052C0EA89FB89888D998D992358
:100DF0001CF491958195910991838083EC89FD89FB
:100E00001182108242C020E030E040E252ECC70183
:100E1000B60109D188230CF5188A81E0898B888175
:100E2000813049F46F818D819E81D4D968858D810F
:100E30009E81C4D92AC0823041F5EA89FB8911829A
:100E40001082EC89FD89888D998D99231CF49195E8
:100E5000819591099183808318C0188A198A8881A5
:100E6000813049F46F818D819E81B4D968858D81EF
:100E70009E81B0D90AC0823041F4EA89FB8911828F
:100E80001082EC89FD8911821082DF91CF91FF9051
:100E9000EF90DF90CF900895FC0164870895F89457
:100EA0008AB180738AB98DB18F708DB984B18F7C0E
:100EB00084B98BB180738BB985B18F7C85B98EB1C4
:100EC000806F8EB9E9E6F0E080819FEF9083EAE6DB
:100ED000F0E08081856580838DB39DBB7894089513
:100EE000EAE7F0E0808187688083ECE7F0E08081CA
:100EF0008064808380818F778083EBE7F0E080815E
:100F0000877F808308951092C50087E68093C40090
:100F100002C08091C6008091C0008823D4F3E0EC29
:100F2000F0E080818260808388E98093C10086E060
:100F30008093C20008959091C00095FFFCCF8093EC
:100F4000C6000895CF93DF93EC0102C02196F3DF32
:100F500088818111FBCFDF91CF9108955058BB2735
:100F6000AA270ED075C166D130F06BD120F031F4D4
:100F70009F3F11F41EF45BC10EF4E095E7FB51C1F5
:100F8000E92F77D180F3BA176207730784079507B3
:100F900018F071F49EF58FC10EF4E0950B2EBA2F68
:100FA000A02D0B01B90190010C01CA01A00111246F
:100FB000FF27591B99F0593F50F4503E68F11A161B
:100FC000F040A22F232F342F4427585FF3CF4695AC
:100FD00037952795A795F0405395C9F77EF41F16CE
:100FE000BA0B620B730B840BBAF09150A1F0FF0F98
:100FF000BB1F661F771F881FC2F70EC0BA0F621F84
:10100000731F841F48F4879577956795B795F79573
:101010009E3F08F0B3CF9395880F08F09927EE0F05
:10102000979587950895D9D008F481E008950CD05C
:101030000FC107D140F0FED030F021F45F3F19F02E
:10104000F0C0511139C1F3C014D198F39923C9F3F9
:101050005523B1F3951B550BBB27AA2762177307BE
:10106000840738F09F5F5F4F220F331F441FAA1F72
:10107000A9F333D00E2E3AF0E0E830D09150504032
:10108000E695001CCAF729D0FE2F27D0660F771FE0
:10109000881FBB1F261737074807AB07B0E809F0C2
:1010A000BB0B802DBF01FF2793585F4F2AF09E3F57
:1010B000510568F0B6C000C15F3FECF3983EDCF329
:1010C000869577956795B795F7959F5FC9F7880FD0
:1010D000911D9695879597F90895E1E0660F771F22
:1010E000881FBB1F621773078407BA0720F0621BB3
:1010F000730B840BBA0BEE1F88F7E095089504D0AC
:101100006894B111D9C00895BCD088F09F5790F071
:10111000B92F9927B751A0F0D1F0660F771F881F1C
:10112000991F1AF0BA95C9F712C0B13081F0C3D037
:10113000B1E00895C0C0672F782F8827B85F39F0D5
:10114000B93FCCF3869577956795B395D9F73EF47B
:1011500090958095709561957F4F8F4F9F4F089523
:10116000E89409C097FB3EF4909580957095619541
:101170007F4F8F4F9F4F9923A9F0F92F96E9BB27F7
:101180009395F695879577956795B795F111F8CF73
:10119000FAF4BB0F11F460FF1BC06F5F7F4F8F4FDE
:1011A0009F4F16C0882311F096E911C0772321F0D4
:1011B0009EE8872F762F05C0662371F096E8862F6C
:1011C00070E060E02AF09A95660F771F881FDAF7C3
:1011D000880F9695879597F90895990F0008550FF0
:1011E000AA0BE0E8FEEF16161706E807F907C0F0AD
:1011F00012161306E407F50798F0621B730B840BB5
:10120000950B39F40A2661F0232B242B252B21F48E
:1012100008950A2609F4A140A6958FEF811D811D2E
:10122000089597F99F6780E870E060E008959FEF68
:1012300080EC089500240A9416161706180609066D
:10124000089500240A94121613061406050608953C
:10125000092E0394000C11F4882352F0BB0F40F4C4
:10126000BF2B11F460FF04C06F5F7F4F8F4F9F4F04
:10127000089557FD9058440F551F59F05F3F71F086
:101280004795880F97FB991F61F09F3F79F08795ED
:101290000895121613061406551FF2CF4695F1DF76
:1012A00008C0161617061806991FF1CF8695710506
:1012B000610508940895E894BB2766277727CB013A
:1012C00097F908958ADF08F48FEF08950BD0C0CF07
:1012D000B1DF28F0B6DF18F0952309F0A2CFA7CF31
:1012E0001124EACFC6DFA0F3959FD1F3950F50E00C
:1012F000551F629FF001729FBB27F00DB11D639FC8
:10130000AA27F00DB11DAA1F649F6627B00DA11D6D
:10131000661F829F2227B00DA11D621F739FB00D13
:10132000A11D621F839FA00D611D221F749F332783
:10133000A00D611D231F849F600D211D822F762F1C
:101340006A2F11249F5750408AF0E1F088234AF019
:10135000EE0FFF1FBB1F661F771F881F9150504065
:10136000A9F79E3F510570F05CCFA6CF5F3FECF32D
:10137000983EDCF3869577956795B795F795E79551
:101380009F5FC1F7FE2B880F911D9695879597F962
:1013900008950024A7FD00942A0F301D401D501D04
:0E13A000601D701D801D901D0895F894FFCFF4
:1013AE000161636B630A0061636B640A0061636BC6
:0413BE00680A0000B9
:00000001FF
